:020000040800F2
:10000000E0E60020D11601081514010817140108B4
:10001000191401081B1401081D1401080000000038
:100020000000000000000000000000001F14010894
:100030002114010800000000231401082514010800
:100040000117010805170108091701080D17010814
:100050001117010815170108191701081D170108C4
:100060002117010825170108A11401082D170108FF
:100070003117010835170108391701083D17010824
:100080004117010845170108491701084D170108D4
:10009000511701085517010859170108671501087C
:1000A0006117010865170108691701086D17010834
:1000B0002D14010871140108791701087D17010832
:1000C0008117010885170108891701088D17010894
:1000D0009117010895170108991701089D17010844
:1000E000A1170108A5170108A917010800000000C1
:1000F0000000000000000000000000000000000000
:100100000000000000000000AD170108B117010851
:10011000B5170108B9170108BD170108C117010873
:10012000C5170108C9170108CD170108D117010823
:10013000D5170108D9170108DD170108E1170108D3
:10014000E5170108E9170108ED170108F117010883
:108000007CB504000D006068DFF8941B0860DFF8A1
:10801000900B0068008801F0A7F9C0F3032080B23C
:10802000616811EB8000DFF87C1B0860DFF8700BE3
:108030000068008801F098F9C0F3032080B2800046
:1080400000B2414209B2200001F0BAFA002802D180
:108050002089142803D2200001F0FCFA2DE2290027
:10806000DFF83C0B0068103001F04EFC00280FD107
:108070005FF0704001F089F905005FF0604001F0A9
:1080800084F9DFF81C1B096809692940814203D182
:10809000200001F0DFFA10E2DFF8080B00688089A9
:1080A00001F062F980B2000BC0B27FF0030101FB66
:1080B00000F109B2200001F083FA002803D020006B
:1080C00001F0C8FAF9E1DFF8DC0A0068008801F085
:1080D0004BF9DFF8D01A09680880DFF8C80A006891
:1080E000408801F041F9DFF8BC1A09684880DFF8E0
:1080F000B40A0068406801F048F9DFF8A81A096876
:108100004860DFF8A41A0860DFF8980A0068806801
:1081100001F03BF9DFF88C1A09688860DFF88C1AE7
:108120000860DFF8800A0068C08901F01DF9DFF8F7
:10813000741A0968C881DFF86C0A0068808901F048
:1081400013F910F03F00DFF8681A0870DFF8600AD2
:1081500000780321084201D0012000E0002021899D
:108160004018DFF8501A08800021DFF84C0A056833
:1081700001E02900ED68002D30D0287C0028287C03
:108180000A28287C0128288CDFF8182A126812880F
:108190009042EED1288BDFF80C2A12685288904268
:1081A000E7D16868DFF8F8291268D2689042E0D118
:1081B0002868DFF8EC29126812699042D9D1E86882
:1081C000A842002908D0E868C860DFF8EC09006818
:1081D000E860DFF8E4090560E868A842002D58D19E
:1081E000DFF8D809056800E0ED68002D24D0287C70
:1081F0000A28288CDFF8AC19096809888842F3D16D
:10820000288BDFF8A019096849888842ECD1686892
:10821000DFF88C190968C9688842E5D12868DFF859
:108220008019096809698842DED1280000F0E9F95F
:10823000200001F00FFA40E10021DFF88409006816
:1082400001E00100C068002823D0002809D002689E
:10825000002A06D00268DFF848391B681B699A4279
:10826000EFD1028BDFF83C391B685B889A42E8D17A
:10827000002908D0C268CA60DFF844190968C160E3
:10828000DFF83C19086000F019F9200001F0E2F96C
:1082900013E1002D00F0E680DFF8280900210160DD
:1082A000DFF8200921898181DFF818096168816080
:1082B000DFF810094460DFF80C09DFF8E8180968F6
:1082C0000161DFF8040900210160DFF800090021E5
:1082D0000170E86F002818D0D5F88400002808D075
:1082E0000023EA6F29006869D5F88460B04706006A
:1082F00006E00026E86F002802D0E86F01F0AAF936
:1083000076B2002E2BD10020E867DFF8C4080560A4
:10831000280000F09DF90600DFF8B4080021016094
:108320007FF0040076B2864200F08D80DFF89C0872
:108330000078000717D5D5F89000002805D07FF009
:1083400005016869D5F8902090472900DFF8680892
:1083500001F099FE2900022001F065FF73E0200082
:1083600001F078F9A9E0DFF864080078C00609D5C3
:108370002900DFF8440801F086FE2900022001F000
:1083800052FF60E00026B5F86C0001280DD3D5F847
:108390008000002808D0B5F86C2029006869D5F85D
:1083A00080309847060000E00026DFF81C080068CF
:1083B00000282FD0DFF8F8070078000709D5DFF88C
:1083C00008080068407B50F00100DFF8FC170968DE
:1083D0004873D5F8840000280AD00023DFF8E807A6
:1083E000026829006869D5F88440A04706000AE0C1
:1083F0000026DFF8D4070068002804D0DFF8C8079B
:10840000006801F027F976B2002E03D0DFF8B80734
:108410000068E867DFF8B407007880060DD5D5F866
:108420008400002808D00023002229006869D5F8BC
:108430008440A047060000E0002676B2002E02D15C
:10844000280002F0AAF9DFF87C074068002834D041
:10845000DFF87007406801F0FDF8DFF868070021D9
:1084600041602AE0DFF83C070068808900F07CFF6B
:1084700040071FD4DFF82C07006800880190DFF860
:108480002407006840880090DFF81407006810F1A6
:108490000C03DFF80C07006810F11002DFF8080782
:1084A0000068DFF8101709880918DFF8000700686E
:1084B00002F00EFB200001F0CDF873BD30B583B0A3
:1084C0000400DFF8EC060078C00622D5DFF8D406F9
:1084D000006800880190DFF8CC06006840880090B2
:1084E000DFF8BC06006810F10C03DFF8B406006882
:1084F00010F11002DFF8B0060068DFF8B81609883E
:108500000918DFF8A8060068401C02F0E1FA002014
:108510003EBDDFF89C0600788007F8D5607C01F04E
:108520003AFD0500002D02D15FF0FF30F0E7DFF8E3
:10853000700600681030002801D1002003E0DFF849
:108540006006006800692860208B2883DFF85006E9
:1085500000680C30002801D1002003E0DFF840065D
:108560000068C0686860DFF83C06006800882884FE
:1085700003202874DFF830060068401C6862686ACF
:10858000E862DFF820060068C089A5F85C00B5F84D
:108590005C00A5F85400DFF810060068401E28664D
:1085A00060696861E069E861208940F299110840DA
:1085B0002881DFF804060068E860DFF8FC05056044
:1085C000280000F061FE291D288F01F0C5FD2887D5
:1085D0000120019000200090122300220021280099
:1085E00001F094FE040064B2002C06D000212800A3
:1085F00001F053FA200040B28AE7280002F0CDF8DB
:1086000086E710B50400DFF8A0050068DFF8A415C0
:1086100009880818616A401A012807DBDFF8880515
:108620000068DFF89015098808186062DFF8840593
:108630000088012808D394F8220050F0020084F842
:108640002200200002F0A9F8200002F0A6F810BDD8
:1086500030B583B0040000210020DFF854251278E3
:10866000520733D5207C022807D1DFF84005006887
:10867000A26D904212D1012110E0DFF82C050068B4
:10868000626A801A002809D4DFF81C050068626A53
:10869000801A228D801A012800DA0121C9B200292E
:1086A00012D0207C0028DFF82405007850F0080064
:1086B000DFF81815087094F8220010F0FE0084F816
:1086C00022007FF005006AE2002068E2DFF8E004A3
:1086D0000078800710D5207C02280DD0207C03284C
:1086E0000AD094F8220050F0020084F82200200002
:1086F00002F053F8002052E2DFF83C0C00682063DF
:10870000002084F89D00200000F0BEFD207C02289F
:1087100014D0C0F04382042800F01B81C0F0A78071
:10872000062800F09681C0F02781082800F0DB8140
:10873000C0F00F81092800F01D822FE2DFF8FC0B4A
:10874000007810F0120012286BD1A06F0069406809
:1087500000F01BFEDFF854140968401C814260D110
:10876000B4F86E00401CA4F86E00DFF83C0400680A
:10877000401C6062606AE062DFF830040068E06418
:10878000DFF820040068C089A4F85C00DFF8180452
:108790000068401E206604202074211D208F01F0F7
:1087A000DBFC2087208F0A214843A4F85400B4F84A
:1087B0005200012803D1208F80B2400000E0208FBA
:1087C000A4F85200B4F870000128B4F87000401EFC
:1087D000A4F87000A06F0168A167A16F002903D100
:1087E0005FF0FF31E18604E00021E186002184F89A
:1087F0004A1001F06FFBD4F88800002806D0002250
:1088000021006069D4F88830984700E0002094F88F
:10881000220050F0020084F82200200001F0BDFF89
:1088200024E0DFF8180B0078C0061FD5DFF87403CA
:10883000006800880190DFF86C03006840880090B1
:10884000DFF85C03006810F10C03DFF854030068E4
:1088500010F11002DFF850030068DFF858130988A0
:108860000918DFF84803006802F032F996E1DFF8F2
:10887000CC0A0078C0065DD5CC480068E16C401A8F
:10888000401E00283CD4C9480068A16D401A012848
:1088900036DA04202074E0690028E069002805D059
:1088A000002221006069E369984700E0002040B29F
:1088B000002806D00121200001F0EFF87FF004002D
:1088C0006DE1B4F85250200000F084F9ADB2012DF2
:1088D00003D1208F80B2400000E0208FA4F8520026
:1088E000BA480078800633D594F8220050F0020090
:1088F00084F82200200001F050FF0720207427E0B8
:10890000A848006800880190A64800684088009048
:10891000A348006810F10C03A148006810F1100290
:10892000A1480068A34909880918A048006802F016
:10893000CFF80DE0DFF8040A0078800708D59A48E0
:108940000068616A491E884202D1200002F03DF9A8
:1089500024E1200000F03EF99C48007880060AD50A
:1089600094F8220050F0020084F82200200001F068
:1089700014FF0720207411E1200000F02BF9934828
:108980000078800658D5DFF8B4090078C00647D5CE
:1089900086480068A16D884242D194F8220050F0C8
:1089A000020084F82200200001F0F7FE200001F010
:1089B0004DFB81480068A04205D17F480068C0682F
:1089C0007D49086022E0DFF878097B490968016089
:1089D00006E0DFF86C090068C068DFF86419086019
:1089E000DFF85C090068002810D0DFF8540900683F
:1089F000C0680028EDD0DFF848090068C068A042D0
:108A0000E7D1DFF83C090068E168C1600020E06060
:108A10000A20207469480068E0606848046017E034
:108A200094F8220050F0020084F82200200001F0A7
:108A3000B4FE082020740BE0DFF800090078C006BF
:108A400006D55A480068A16D884201D106202074DD
:108A5000A4E0200000F0BEF85C480078800641D514
:108A600094F8220050F0020084F82200200001F067
:108A700094FE200001F0EAFA4F480068A04205D1B8
:108A80004D480068C0684C49086022E0DFF8B00833
:108A900049490968016006E0DFF8A4080068C06879
:108AA000DFF89C180860DFF898080068002810D0EC
:108AB000DFF88C080068C0680028EDD0DFF8800877
:108AC0000068C068A042E7D1DFF874080068E16878
:108AD000C1600020E0600A20207438480068E0602F
:108AE000364804605AE0200000F074F8DFF84C08C3
:108AF0000078C0063DD52D480068A16D884238D168
:108B0000200001F0A3FA2C480068A04205D12A48B1
:108B10000068C0682849086022E0DFF82408264978
:108B20000968016006E0DFF818080068C068DFF82F
:108B300010180860DFF808080068002810D0DFF877
:108B400000080068C0680028EDD0DFF8F40700686E
:108B5000C068A042E7D1DFF8E8070068E168C160BB
:108B60000020E0600A20207414480068E060134888
:108B7000046013E0200000F02DF8DFF8C007007853
:108B8000C0060AD509480068A16D884205D10F4882
:108B9000007850F010000D490870FFE700203EBD3E
:108BA00094D6002090D6002098D600209CD6002095
:108BB000D9D60020C2D6002084D6002088D6002036
:108BC00080D60020C8D50020A0D60020DAD600200C
:108BD000A4D60020F8B504000025DFF8600700786F
:108BE000C00640F1DE81B4F85C00616E0818216EA9
:108BF000DFF850271268891A00291AD4216EDFF88D
:108C000044271268914206D1616EDFF87826126817
:108C1000891A00290DD4616EDFF868261268914226
:108C200020D1B4F85C10DFF820271268D289914275
:108C300018D2DFF814170968C989A4F85C10DFF8A6
:108C4000041709682166DFF83C1609686166B4F804
:108C50005C10012906D394F89C10012902D300214D
:108C600084F89C10E16CDFF81C26126891425ED1FA
:108C70000021A4F86C10616EB4F85C205118814298
:108C800040F0338194F85000401C84F8500094F870
:108C900050000328C0F02981A06F002800F0258132
:108CA00094F82200400731D4200001F08EFFB4F880
:108CB0005C00B4F85210884207D2B4F85C0002217C
:108CC00090FBF1F0A4F8540006E0B4F85200022141
:108CD00090FBF1F0A4F85400B4F85400218FB0EBED
:108CE000410F04DA208F80B24000A4F85400B4F899
:108CF0005400218F032202FB0100A4F8520094F8D3
:108D0000220050F0040084F82200EEE0B4F8520093
:108D1000B4F85210228F511889B2884280F0E58051
:108D2000B4F85200218F0818A4F85200DDE0DFF8F3
:108D300054050068E16C401A401E002800F1B28022
:108D4000DFF840050068A16D401A012880F2AA8072
:108D500094F82200400709D594F8220010F0FB0097
:108D600084F82200B4F85400A4F85200002084F8DB
:108D70004A00B4F94400B4F9461011EBE000A4F83D
:108D80004800DFF800050068E16C401AA4F86C00A8
:108D9000B4F86E00B4F86C100818A4F86E00002047
:108DA00084F85000DFF8DC040068E064207C0428CC
:108DB00046D3B4F85200B4F8541088420FD2B4F835
:108DC0005200B4F85210228F511889B2884237D21B
:108DD000B4F85200218F0818A4F8520030E0B4F81B
:108DE0005200218F228F5143B4F8522091FBF2F1AF
:108DF0000818B4F8521080B2814221D2A4F852006F
:108E00001EE0A66FA06F0068A067706800F05DFCB0
:108E1000B4F8701080B28142B4F87070706800F0DD
:108E200054FC381AA4F87000300001F053F8B4F87C
:108E30007000002804D0A06F002801D1606F0028C6
:108E4000A06F002821D0A06F0069406800F09DFA53
:108E50000600A06F0069808900F086FAC00709D477
:108E6000A06F0069808900F07FFAC0F3400010F025
:108E7000010000E00120A16F898940188019DFF806
:108E800004140968401A0128BBDBA06F002803D135
:108E90005FF0FF30E08601E00020E086002084F8EB
:108EA000340022E00020A4F86C001EE0666F606FC2
:108EB00000686067706800F008FCB4F8701080B259
:108EC0008142B4F87070706800F0FFFB381AA4F8A3
:108ED0007000300000F0FEFFB4F87000002804D0ED
:108EE000A06F002801D1606F0028606F002827D094
:108EF000606F0069406800F048FA0600606F006922
:108F0000808900F031FAC00709D4606F0069808958
:108F100000F02AFAC0F3400010F0010000E0012048
:108F2000DFF860130968891B626F92898018081A3C
:108F3000002805D4D3480068A16D401A0128B5DB8C
:108F4000E06B00282DD0206CCE490968401A00281B
:108F500027D5DFF8E4030068E16B401A00B2B4F9EA
:108F60004410B0EBE100B4F844104118A4F84410E8
:108F700000B2002801D500B2404200B2B4F9461058
:108F8000B0EBA100B4F846104018A4F84600B4F9BC
:108F90004400B4F9461011EBE000A4F848000020AA
:108FA000E063DFF8A80300880128C0F04F81606A01
:108FB000DFF890130968401A401E002856D4606AF2
:108FC000DFF880130968401ADFF880130988401A17
:108FD000401C01284ADA606ADFF868130968401A01
:108FE000DFF86C134E68DFF868134968002947F60C
:108FF000FF718842DFF858134968498981421BDABA
:10900000DFF84C13496809898142DFF84413496845
:109010000989091A05E07289801A3181002272815A
:10902000366872898242F6DB414209B2300000F0B4
:10903000C7FA002807D006E0414209B2C448406898
:1090400000F0BEFA0028C24871688160C04880897B
:10905000616ABC4A1268891A401ABD498881606AEF
:10906000B8490860BA49096948600EE0B548006827
:10907000616A401A002808D594F8220050F00200D6
:1090800084F82200200001F088FBAE480068616A85
:10909000401A002800F1D080AA480068616A401A8E
:1090A000218D401A401C012880F2C680606AA549C3
:1090B0000968884240F0B6800125A548006980898A
:1090C00000F052F9C00709D4A1480069808900F076
:1090D0004BF9C0F3400010F0010000E001209C4972
:1090E0008989401899490880208D984909888842C3
:1090F00052D297480069808900F036F9C00716D52A
:1091000093480069808900F02FF9060090480069B3
:10911000808900F029F94FF6C071314010F03E000F
:10912000084380B200F01AF98949096988818848A2
:10913000218D818186480069808900F015F98007BA
:1091400004D583488089401E81498881804881896F
:109150007F48406800F0F3F97D480069808900F09D
:1091600003F9C00709D47A480069808900F0FCF847
:10917000C0F3400010F0010000E00120744989892B
:109180004018724908806F480068704909880818BB
:10919000616A228D511888426A4800686B490988C3
:1091A00008186062208D694909888842208D6749C6
:1091B0000988401A2085200000F0C7FC64484068F8
:1091C0000089012806D36248406862490860604807
:1091D000002141605E480069808900F0C5F8C00741
:1091E00005D55D48007850F020005B49087094F880
:1091F0002200C0070FD594F8220010F0FE0084F87A
:10920000220094F8220050F0020084F8220020008E
:1092100001F0C3FA05E094F8220050F0010084F850
:1092200022002BE094F8220050F0020084F8220083
:10923000200001F0B2FA21E094F8220050F0020080
:1092400084F82200200001F0A8FA17E03D480068E9
:10925000616A401A002808D43A480068616A401AD6
:10926000218D401A401C012808DB94F8220050F0A0
:10927000020084F82200200001F08FFA2800C0B21A
:10928000F2BD00009CD6002038B504002E480068CE
:1092900000F214052C480068808900F065F880B25F
:1092A000000BC0B2062845D327480068808900F02B
:1092B0005BF880B2000B401F8000002100E0491CD9
:1092C00089B280B2814235D289B24A5DD2B2002AD7
:1092D00003D0022A02D0F2D321E02BE089B24A194E
:1092E0005278042A04D180B289B20A1D904200DA71
:1092F00020E089B24A19927889B24B19DB7853EA97
:10930000022240F2B55392B29A4202D292B2002A9D
:1093100002D140F2B452FFE72287091DD0E789B29B
:109320004A195278002A05D00A0092B2521952788E
:109330005118C5E731BD000078D60020D9D60020ED
:109340008CD6002098D6002090D60020C2D60020CF
:10935000C8D50020A0D60020DAD6002080B2010AAD
:1093600051EA002080B2704780B580B2FFF7F6FF67
:1093700002BD10F47F41090251EA0061020A12F4B1
:109380007F42114351EA1060704780B5FFF7F1FF4B
:1093900002BDF8B50E0014000027C0B2002805D0A9
:1093A000022805D003D3032817D017E01437143749
:1093B0000E37E4B2002C00F08A80022C00F0AD8061
:1093C000C0F0AB80032C40F0B880082000F013FF01
:1093D0000500002D04D1002078E0EAE7002075E0C8
:1093E0002C7300202860BFB278191030C01C800890
:1093F0008000686068680421B0FBF1F202FB110292
:10940000002A2E81B6B240F2DC50BFB2F91C31F016
:109410000301401A864201DA300006E040F2DC50D7
:10942000F91C4FF6FC721140401A688105F2EC50AD
:1094300069896A688918884240F2DC50BFB2F91C19
:1094400031F00301401A01280120E8812F00B6B253
:109450006889361A17E040F2DC51418110F11001A1
:10946000416041680422B1FBF2F303FB1213002BAD
:1094700005F2EC516A896B68D21891420121C181D1
:109480004189761A0700012E1BDB082000F0B3FE8D
:10949000002804D1280000F0DDF8002016E0047355
:1094A000002141730021016038604FF6FF718E4248
:1094B0000681310040F2DC5289B29142CBD23100B8
:1094C000CBE70120E881002068732800F2BD17F186
:1094D00013004FF6FC710840B6B2F11C31F00301E5
:1094E000081880B201F01CFD0500002D01D10020FC
:1094F000ECE7BFB278191030C01C800880006860AB
:109500002E816E81002028602C7368680421B0FBD6
:10951000F1F202FB1102002AD3E7072000F06BFEF4
:109520000500002D01D10020D0E7002068602E81C9
:109530006E81002028602C73C3E70020C6E738B591
:1095400004000D00002C207B032807D0207B01287D
:1095500004D0207B002801D0207B02282089ADB2D6
:1095600085422CD2ADB22089281A09E061896D1A92
:109570004FF6FF7188422189411821812468002C0F
:109580006189ADB2A942F1D3207B00280CD160895A
:10959000ADB2854208D06068001B291889B220004E
:1095A00001F03DFC0400002C658160892081206869
:1095B000002802D0206800F04DF80020206031BD66
:1095C00010B4002809B2002901D0002801D10020E0
:1095D0003AE009B2002908D509B24C424289A4B246
:1095E000A24201D201202FE000E00C00027B436880
:1095F00092B2002A02D092B2032A0CD109B24A4296
:10960000446812194260426810F11004A24214D258
:109610004360012018E092B2022A02D092B2012ADD
:1096200016D109B2002911D54289A4B2A2420DD3A4
:1096300009B24A424368D218426042898A1842817C
:10964000028989180181002010BC70470120FBE7C6
:109650000120F9E738B5002802D10028002033E0C6
:10966000017B002907D0017B012904D0017B02295D
:1096700001D0017B0329002503E001F0ABFB6D1C49
:10968000200000281ED0C1890129C189491EC1813D
:1096900089B2002914D10468017B89B2032904D15D
:1096A0000100082000F0BFFDE9E789B2012902D0DE
:1096B00089B20229E1D10100072000F0B4FDDEE704
:1096C0000020DEE72800C0B232BD002101E0491CC5
:1096D00000680028FBD10800C0B27047002802D003
:1096E000C189491CC1817047002801D0002900D1DF
:1096F00012E004E002890B899A180281006802686E
:10970000002AF7D1028943899A420268002A028915
:109710000B899A1802810160704710B50C00210076
:10972000FFF7E2FF2000FFF7D9FF10BD2DE9F04160
:1097300004000D0000260027002C05D0002D03D0CA
:1097400020892989884202D27FF009004BE0002C51
:109750006089B6B2801B6989BFB2C91B884203DB2E
:109760006889B0EB070802E06089B0EB06081FFAD1
:1097700088F84246BFB268683918B6B260683018D7
:1097800001F068FC18EB060618EB07076089B6B213
:10979000B0426089B6B2864201D100262468688949
:1097A000BFB2B8426889BFB2874201D300272D6893
:1097B000002D09D068892989884205D128680028A8
:1097C00002D07FF008000EE0002C09D060892189CA
:1097D000884205D12068002802D07FF0080002E00E
:1097E000002DB4D10020BDE8F0812DE9F84380467A
:1097F0000C0017000025B8F1000F01D100203EE059
:10980000002C01D100203AE00026B8F1000F01D071
:10981000002C01D1002032E01DE0B8F80A00B0EBC6
:109820000309BFB21FFA89F94F4500D2B9461FFAA2
:1098300089F94A469BB2D8F804001918B6B2301913
:1098400001F008FC19EB050519EB0606B7EB090753
:109850000023D8F80080BFB2002F0ED0B8F1000F5F
:109860000BD09BB2002BD8D0B8F80A009BB2834231
:10987000D3D3B8F80A001B1AEBE7280080B2BDE882
:10988000F2832DE9F84304000D001600B0465FF0A6
:109890000009002C01D1002034E0002D01D100206E
:1098A00030E0002C05D0002D03D02089B6B2B042A4
:1098B00002D27FF0090025E014E0002C47466089C1
:1098C000BFB2B84200D26789BFB23A001FFA89F925
:1098D00019EB0501606801F0BDFBB8EB070817EB59
:1098E000090924681FFA88F8B8F1000FE5D11FFABA
:1098F00088F8B8F1000F04D11FFA89F9B6B2B14562
:10990000FFD00020BDE8F28310B40268D343002BDF
:1099100001D0002A01D101201CE091F82A309B07D8
:1099200001D4002016E04B689A4201D1002011E0DA
:1099300000688B6818404B688C682340984208D1B7
:10994000886832EA00008968C943884201D1012051
:1099500000E0002010BC70470000000080B500F05F
:1099600075FADFF8C4070078401CDFF8BC170870F0
:10997000C00701D500F005F901BD38B50400207C11
:1099800000280AD0012842D002284CD0032856D003
:1099900004285FD0072868D072E00025DFF88C0724
:1099A0000068A04207D1DFF884070068C068DFF8CC
:1099B0007C17086023E0DFF87807DFF87017096884
:1099C000016006E0DFF868070068C068DFF860172C
:1099D0000860DFF85C070068002810D0DFF8500747
:1099E0000068C0680028EDD0DFF844070068C06850
:1099F000A042E7D1DFF838070068E168C1600020C5
:109A0000E0602100022000F00EFC00243AE0002576
:109A10002100DFF8200700F036FB2100032000F0D2
:109A200002FC00242EE000252100DFF80C0700F0E6
:109A30002AFB2100022000F0F6FB002422E0012195
:109A4000200000F056FC05006DB2002D01D105206C
:109A5000207417E00121200000F04BFC05006DB2DE
:109A6000002D01D1052020740CE00121200000F020
:109A700040FC05006DB2002D01D10920207401E0E9
:109A800000250024002C05D06DB2002D02D120004D
:109A900000F083FE280040B232BD2DE9F04F85B0C2
:109AA00004000D00207C0A2809D12100DFF88C0673
:109AB00000F0E9FA2100022000F0B5FB42E0A66DBB
:109AC000676A002C01D1002000E020680290201D70
:109AD000002801D1002000E060680390B4F81880ED
:109AE000B4F82090D4F890A0D4F814B02100DFF896
:109AF000480600F0C8FAA06F002802D0A06F00F05E
:109B0000DCF9606F002802D0606F00F0D6F9210008
:109B1000022000F088FB5046002803D07FF00401AB
:109B20005846D047002D0DD01FFA89F9CDF8049082
:109B30001FFA88F8CDF8008003AB02AA3900300084
:109B400000F0C6FF05B0BDE8F08F416A028D5118E4
:109B5000C26A8A1A038FD21A002A04D4028D42855F
:109B6000C06A081A0CE0416AC26A891A012902DB3C
:109B70000021418503E0C16A426A891A41850020BB
:109B8000704770B50020DFF8B8150968491CDFF888
:109B9000B02511600024DFF8A0150D6817E0DFF88C
:109BA00098050068A842E868DFF88C150860D5F8C9
:109BB0009000002805D07FF004016869D5F8902056
:109BC0009047EE682900022000F02DFB3500002DA3
:109BD00000F00981287C0028287C0128287C0A289C
:109BE0000026287C022805D195F84A00062801D1D4
:109BF000761C6BE095F84A000C2801D1761C65E0D4
:109C000095F89C0001281FD3D5F89800401CC5F892
:109C10009800D5F8980095F89C100FF274528918A6
:109C200011F8011C884251D30020C5F8980095F81E
:109C30009C00072804D295F89C00401C85F89C00E5
:109C4000280001F011F841E0B5F93600002802D4EF
:109C5000E88E401CE886A86F002837D0B5F936009A
:109C6000B5F94810884231DB287C02280DD0B5F9BF
:109C70004400B5F9461011EBE00095F84A100FF2D8
:109C8000005289568840A5F848000020E886B5F8BB
:109C90005200B5F85C10884202D2B5F8520001E0DB
:109CA000B5F85C0080B24008A5F85400B5F854003F
:109CB000298F884204D2288F80B24000A5F8540032
:109CC000288FA5F85200280000F065FF287C0628A0
:109CD00008D1DFF86C040068296B401AB0F5C87F22
:109CE00000D9761C287A000733D5287C042802D0B6
:109CF000287C07282DD1D5F89400DFF848140818DF
:109D00003221B0FBF1F0DFF8381409682A6B891AA8
:109D1000884204D201212800FFF7BFFE19E0D5F8E0
:109D2000940095F89D10DFF8202402FB01003221F9
:109D3000B0FBF1F0DFF8081409682A6B891A884231
:109D400007D2280000F06BFF95F89D00401C85F8B5
:109D50009D00287C032808D1DFF8E4030068296B04
:109D6000401AB0F5C87F00D9761C287C092808D194
:109D7000DFF8CC030068296B401AB0F5166F00D9E4
:109D8000761CF6B2002E0CD0280000F05FF9002CF3
:109D90003FF405AFDFF8A00300688542E868E060A3
:109DA00005E795F83400401C85F8340095F8340038
:109DB00095F83510884213D3002085F83400D5F883
:109DC0008C00002805D029006869D5F88C209047C0
:109DD00000E0002040B2002802D1280000F0DDFCA5
:109DE0002C00ED68F3E60024DFF8500305680DE071
:109DF000DFF848030068A842E868DFF8401308600D
:109E0000EE682900022000F00EFA3500002D1CD06B
:109E1000287C0A280026DFF828030068296B401AEE
:109E2000B0F5166F00D9761CF6B2002E0AD02800C5
:109E300000F00CF9002CDBD0C04800688542E868CF
:109E4000E060DDE72C00ED68E0E770BD38B5BA48AA
:109E500004681FE00025E06F002802D0E06FFFF7E4
:109E6000F9FB6DB2002D01D10020E06794F82200CB
:109E7000C0070ED594F8220050F0020084F82200AA
:109E8000200000F08AFC94F8220010F0FC0084F816
:109E90002200E468002C0FD0E06F0028E6D0D4F850
:109EA00084000028D6D00023E26F21006069D4F836
:109EB0008450A8470500D4E731BD38B5002404E03C
:109EC000056800F007F8041928000028F8D12000E0
:109ED000C0B232BD38B504000025002C0AD060683D
:109EE000002803D06068FFF7B5FB050021000420BF
:109EF00000F099F92800C0B232BD80B5002A04D024
:109F00001000FFF7A7FB002002BD5BB2002BFAD1C7
:109F10000800FFF732FDF7E770B57F240023002229
:109F20008549096814E04D7CC0B2A8420FD34D7C2E
:109F3000E4B2AC420BD3824D2D680E6BAD1B9D423B
:109F400005D37F4A12680B6BD31A0A004C7CC96890
:109F50000029E8D1002A03D001211000FFF79DFD60
:109F600070BD10B500220020744909680BE0744BE5
:109F70001B680C6B1B1B934204D3714800680A6B6F
:109F8000821A0800C9680029F1D1002802D00121F5
:109F9000FFF783FD10BD38B50500022000F02BF956
:109FA0000400002C0FD1FFF7DCFF022000F023F9A2
:109FB0000400002C07D12800C0B2FFF7ADFF02203B
:109FC00000F019F90400002C3ED0A022002120004E
:109FD00001F047F84020607440F66830A4F86E0045
:109FE0000020A4F8700040F66830208540F6683004
:109FF00060850020A072FF20E0724FF40670208779
:10A000003C20A4F848000020A4F844003C20A4F818
:10A0100046005FF0FF30E0860120A4F8520000F017
:10A0200078F86066A065E064A06645480068206333
:10A03000002084F834004548C4F884004448C4F83B
:10A040009400002084F89D00200032BD10B504006B
:10A05000207C002816D0207C0A2813D0207C0128E0
:10A0600010D0E06F002804D0E06FFFF7F3FA002073
:10A07000E067606FFFF721FFA06FFFF71EFF002072
:10A080006067A06710BD10B50C000168A14203D144
:10A090000168C96801601AE025490068086004E0A9
:10A0A00023480068C06822490860214800680028E9
:10A0B0000DD01F480068C0680028F1D01C48006817
:10A0C000C068A042ECD11A480068E168C160002075
:10A0D000E0602000FFF7BAFF207C0A280FD0207C28
:10A0E00001280CD094F82200C00708D594F822006B
:10A0F00050F0020084F82200200000F04EFB207C8B
:10A10000012803D0606F0028A06F00280020207471
:10A1100010BD104800680A49096808180D49086010
:10A120000C48006870470000D8D600207CD600207C
:10A130008CD6002080D6002084D6002088D600202F
:10A1400078D60020B84C0A00F8240100FB9E0008D5
:10A1500000DD6D002800002010B50400080000F0AC
:10A160009BFF002809D0018D002906D0008D2838DA
:10A17000A4B280B2844200D30400200080B210BD9B
:10A180000102030405060707070707070700000089
:10A1900003060C1830607800002100E0491C89B2E9
:10A1A0000929FBD3294880088000002118E089B2E2
:10A1B000274B53F82130036089B2254B43F8210027
:10A1C00089B20FF2900333F811301818521C89B27B
:10A1D0000FF2940333F8113092B29A42E7D3491C3C
:10A1E00089B2092906D289B2194A002342F82130DE
:10A1F0000022ECE77047C0B2092801D3002011E02B
:10A20000C0B2134951F8201000290AD0C0B2104A38
:10A210000B6842F820300420B1FBF0F202FB101270
:10A22000002A0800704700290ED00422B1FBF2F387
:10A2300003FB1213002BC0B2054A52F820200A601B
:10A24000C0B2034A42F82010704700004750002077
:10A2500054D500201C002000A00020001400200085
:10A2600008001000EC050000040006000A000600CB
:10A270000C0005001E000A000A000000F8B50400EA
:10A2800016001F004D68208BFFF768F82880208C8F
:10A29000FFF764F868806F60606AFFF76AF8A8608B
:10A2A000A889FFF761F84FF6C071084050F0100020
:10A2B00080B2FFF753F8A881608DFFF74FF8E8816F
:10A2C00000206882A889FFF74FF8042196FBF1F17E
:10A2D000491D10F03F0050EA013080B2FFF73EF810
:10A2E000A88100202882606A618D0818E062280039
:10A2F000F2BD00B583B000220192012200920B0052
:10A30000DBB20022002100F001F80EBD2DE9FE4F66
:10A3100082B00600BDF80C0000280BD19DF83C006F
:10A32000002807D19DF810000321084202D17FF0D8
:10A330000900DCE0BDF80C00002805D102980028D7
:10A3400002D07FF00900D2E0B6F86E00BDF80C1024
:10A35000884208D296F8220050F0800086F8220049
:10A360005FF0FF30C3E0BDF80C70029800909DF8DC
:10A370003C00C00701D5042000E000209DF83C10FF
:10A38000890701D50C2100E0002111EB0009B06E16
:10A390000190B6F870801FFA88F8B8F10C0F05D25A
:10A3A0004FF6FD701FFA88F8804508D396F8220012
:10A3B00050F0800086F822005FF0FF3097E01FFA2F
:10A3C00088F8B8F1000F05D0B06F002801D1706F88
:10A3D000002805E0B06F002802D1706F0028FFD080
:10A3E0000025AB46AA4600244DE0DBF80400406897
:10A3F000CBF81000308BFEF7B1FFDBF810100880AF
:10A40000308CFEF7ABFFDBF8101048800198FEF7A8
:10A41000B0FFDBF810104860DBF81000002141822B
:10A42000DBF810008089FEF79FFF4FF6C0710840EF
:10A430009DF81010084380B2FEF790FFDBF8101073
:10A4400088819DF83C008BF80E00DBF810008089B5
:10A45000FEF78AFF5FFA89F9042199FBF1F1491DA2
:10A4600010F03F0050EA013080B2FEF777FFDBF8D2
:10A47000101088813F1B0198A4B220180190A4B24B
:10A48000009820180090BAF1000F03D0BFB2012F3E
:10A49000C0F0BD80308F5FFA89F9B0EB0900BFB220
:10A4A000B84205DA308F5FFA89F9B0EB090400E0B1
:10A4B0003C000420FFF79FFE8346BBF1000F19D13B
:10A4C00096F8220050F0800086F82200BAF1000FC2
:10A4D00002D05046FFF7F1FCB6F87000002804D017
:10A4E000B06F002801D1706F00285FF0FF3005B019
:10A4F000BDE8F08F0020CBF800000020CBF804006E
:10A50000BAF1000F01D1DA4602E0002DC5F800B023
:10A510005D469DF83800C00730D500225FFA89F902
:10A5200019EB040189B20020FEF733FFCBF80400D9
:10A530000028C5D0DBF804004089A4B25FFA89F98D
:10A5400019EB04018842DBF80400FFF7BEF810EBBA
:10A550000808029800280BD0A4B2220000995FFAE4
:10A5600089F9DBF80400406819EB000000F072FD87
:10A57000DBF804004068CBF8080031E000225FFA05
:10A5800089F9494689B20020FEF703FFCBF80400A1
:10A59000002895D0DBF80400FFF797F810EB0808C7
:10A5A000BFB2012F1CD30122210089B20320FEF784
:10A5B000F0FE002807D1DBF80400FFF74BF800207D
:10A5C000CBF804007CE718F101080099416000997C
:10A5D000CBF808100100DBF80400FFF785F8002035
:10A5E0001FFA88F8B8F10D0F05D24FF6FD701FFA6B
:10A5F00088F8804500D363E7ABF80C401421DBF802
:10A600000400FEF7DDFF00283FF4EFAE58E7706F5F
:10A61000002801D1002505E0756F00E02D6828684D
:10A620000028FBD1002D69D028698089FEF79CFEA7
:10A63000C00708D428698089FEF796FEC0F3400061
:10A6400010F0010000E00120A9894018002855D031
:10A6500028698089FEF788FE032108424ED19DF8C3
:10A6600010000321084249D1308FA989BAF80C2083
:10A670005118884242DBA87B9AF80E1088423DD1DF
:10A680005FFA89F919F11400414209B2DAF80400BD
:10A69000FEF796FF00287FF413AFDAF80400408934
:10A6A00000280CD1DAF80400DAF804100968CAF8B6
:10A6B000041000210160B8F10108FEF7CBFFDAF8C1
:10A6C0000400002804D0DAF8040040890128FFD2F1
:10A6D000DAF804106868FFF707F8A889BAF80C10D0
:10A6E0000818A881DAF800002860D34501D1AB46EC
:10A6F000AC8951460420FFF796FD06E0002D02D1FB
:10A70000C6F874A001E0C5F800A09DF81000032170
:10A71000084204D0BDF80C00401CADF80C009DF8B8
:10A720001000C00705D596F8220050F0200086F8EA
:10A730002200B06EBDF80C100818B066B6F86E00B6
:10A74000BDF80C10401AA6F86E00A6F87080B6F896
:10A750007000002804D0B06F002801D1706F00286D
:10A76000BBF1000F17D0A4B2012C14D3DBF81000FA
:10A77000002810D09DF8380080070CD4DBF81000BA
:10A780008089FEF7F1FD50F0080080B2FEF7E6FD8B
:10A79000DBF8101088810020A9E62DE9F04383B092
:10A7A00004005FF00008C7480068A04201D1002003
:10A7B000A4E0B4F85C00B4F85210884202D2B4F8B5
:10A7C0005C5001E0B4F85250676FA66F002E04D0C1
:10A7D00000E0366830680028FBD194F8220080073A
:10A7E0003FD5002F09D038694068FEF7CEFDE16CF7
:10A7F000401AB9890818854233D200225FFA88F8D6
:10A8000018F1140189B20120FEF7C3FD0500002DE7
:10A8100002D17FF0010071E094F8220010F0FC00FA
:10A8200084F82200A06DFEF7A4FD03005FFA88F80B
:10A83000424629002000FFF721FD06000620019076
:10A84000A07A0090E37A221D2100280000F0BAFDD2
:10A850002800FEF7FFFE002050E03800FFF73AFB2B
:10A86000676F002F2BD038694068FEF78EFDE16CD2
:10A87000401AB9890818854221D338698089FEF7C2
:10A8800073FD4007A06F00280FD094F82200400607
:10A890000BD4606F00280AD0606F0068002804D1D4
:10A8A000606F8089218F884201D3012000E0002061
:10A8B000002825D194F82200A021084220D1002FA1
:10A8C00015D094F89C00002811D138694068FEF733
:10A8D0005CFDE16C401AB9890818B4F85C1081423B
:10A8E00005D20020C4F89800012084F89C0094F858
:10A8F000220010F07F0084F822000020BDE8FE83D3
:10A9000038686067207C022810D038698089FEF79B
:10A910002BFD50F0100080B2FEF720FD39698881D0
:10A9200094F8220010F0FC0084F822002100380086
:10A9300000F069F838694068FEF727FD80463869FD
:10A940008089FEF711FDC00708D438698089FEF7B9
:10A950000BFDC0F3400010F0010000E00120B989B8
:10A96000401810EB0800A16D091A002900D5A06558
:10A9700038698089FEF7F8FCC00708D438698089F7
:10A98000FEF7F2FCC0F3400010F0010000E00120EF
:10A99000B98940180128FFF660AF00203860A06F29
:10A9A000002802D1A7673E005AE738694068FEF7E1
:10A9B000ECFC804630694068FEF7E7FCB8EB00002D
:10A9C00000281DD504F2780801E0D8F80080D8F8F6
:10A9D000000000280ED0D8F8000000694068FEF79B
:10A9E000D4FC814638694068FEF7CFFCB9EB000023
:10A9F0000028EAD4D8F800003860C8F800702FE7C3
:10AA0000376036682CE77CB504000D00686AFEF7F5
:10AA1000B0FC21698860688DFEF7A0FC2169C881BF
:10AA2000686A698D0818E862206900F21406A07B44
:10AA3000C00704D52448FEF79CFC3060361D002D6D
:10AA400002D0286800280BD1281D00F025FB002823
:10AA500037D0011D002901D1002000E040682860A6
:10AA6000B5F936005FF0FF31884201D10020E88659
:10AA7000E86B002807D115480068E8632069406842
:10AA8000FEF783FC2864206961684968401A6168A0
:10AA90004989091A6268518161680989081A6168DF
:10AAA00008816068216941602069002101820620D7
:10AAB0000190A87A0090EB7A2A1D2900606800F0C6
:10AAC00081FC73BDA4D60020B405040278D6002012
:10AAD0002DE9F04F83B082468B4616001F000C9C78
:10AAE0000D9D002214210120FEF753FC8046B8F191
:10AAF000000F4ED0B8F80A001428D8F804902000AF
:10AB000080B2FEF72BFCA9F80000280080B2FEF707
:10AB100025FCA9F802005046FEF72BFCC9F80400FA
:10AB20005846FEF726FCC9F80800B9F80C00FEF7F5
:10AB30001BFC4FF6C071084050F0140080B2FEF7C5
:10AB40000DFCA9F80C0040F66830FEF707FCA9F8E8
:10AB50000E000020A9F81200B9F80C00FEF704FC62
:10AB600010F03F0050F4A04080B2FEF7F7FBA9F8C8
:10AB70000C000020A9F81000062001900020009091
:10AB8000FF233A003100404600F01CFC4046FEF72F
:10AB900061FDBDE8F78F80B5816F002914D0816F0A
:10ABA00000E009680A68002AFBD1426F0A60816FE1
:10ABB00041670021816790F84A10491C80F84A10CB
:10ABC0000021C163FFF7E9FD01BDF8B50400A06FE6
:10ABD000002823D0A56F2868A06704F2740600E05F
:10ABE0003668306800280CD0306800694068FEF78D
:10ABF000CCFB070028694068FEF7C7FB381A00281D
:10AC0000EED430682860356094F84A00401C84F81F
:10AC10004A000020E0632000FFF7BFFDF1BD7CB5D6
:10AC20000400002214210120FEF7B3FB0500002DD3
:10AC300019D068891428A06D401EFEF79AFB030006
:10AC4000002229002000FFF719FB060006200190D2
:10AC500000200090E37A221D2100280000F0B2FBC2
:10AC60002800FEF7F7FC73BDF0B583B00400A76FB2
:10AC7000002F00D1676F002F22D000221521012064
:10AC8000FEF787FB0500002D1AD068891428386963
:10AC90004368002229002000FFF7F0FA06006868E8
:10ACA000B968097801750620019000200090E37AC8
:10ACB000221D2100280000F085FB2800FEF7CAFCB9
:10ACC000F7BD10B450F8041B81B102681218001DC2
:10ACD00050F8043BDC0744BFA9F10104E31852F823
:10ACE000044B43F8044B091FF9D1EBE710BC704744
:10ACF000DFF84C1309688842DFF848130968884276
:10AD000001790029018845F2010291420188DFF8AA
:10AD1000302312688918884218D00A79002A15D180
:10AD2000DFF820231268914210D0DFF81C2312684C
:10AD30008A4201D1C44A10600A8802800988C04A48
:10AD400012688918BE4A1268821A4A804188BC4A31
:10AD500012688918814212D00A79002A0FD1BA4AA2
:10AD60001268824201D1B84A116002880A800088C4
:10AD7000B34A12688018B24A1268891A4180704733
:10AD8000B24880088000AE490860AD4800684FF4C2
:10AD9000A04101800021418000210171A848006884
:10ADA00010F5A040A7490860A6480068012101717C
:10ADB000A44800684FF4A0410180A24800684FF405
:10ADC000A0414180A248012101709F489C49096827
:10ADD0000160704780B5002820D010F003010029E1
:10ADE00097490968884203D3964909688842FFD386
:10ADF00093490968884203D392490968884200D37D
:10AE00000CE0083801790029002101718E49096898
:10AE1000884201D28C490860FFF76AFF01BD70B417
:10AE2000C91C4FF6FC72114089B20C2900D20C21CA
:10AE300045F2010289B2914201D300206EE0804ABE
:10AE40001268904203D37F4A12689042FFD37C4A33
:10AE50001268904203D37B4A1268904200D35DE0AF
:10AE6000B0F10802764B1B68D31A14889BB2E41A1F
:10AE7000083CA4B289B28C42A4B289B28C4201D2FD
:10AE800000204BE089B2A4B2A14247D015886C4E95
:10AE90003668AD192E79002E1FD12C88C9180831BB
:10AEA000694E3668AE4205D189B2654D2D684D199F
:10AEB000654E356089B2624D2D684D1900262E71A0
:10AEC0002C806B8011802A88B2F5A04F26D02A886A
:10AED0005B4B1B68D218518020E0A4B289B211F1FB
:10AEE0001405AC421AD3C918083189B2544C2468ED
:10AEF0000D19554C2468A54201D2534C25600024FD
:10AF00002C7114882C806B8011802A88B2F5A04F98
:10AF100004D02A884A4B1B68D218518070BC7047F5
:10AF200030B480B2002801D1002086E0C01C4FF66A
:10AF3000FC71084080B20C2800D20C2045F20101BF
:10AF400080B2884201D3002077E03F4909683C4A3B
:10AF50001268891A03E089B2394A1268895A89B29B
:10AF600080B2D0F5A042914266DA89B2344A1268C2
:10AF70008A181379002BEED1138889B25B1A083B2B
:10AF800080B28342E7D3138889B25B1A083B80B250
:10AF900010F11404A34217D3431808339BB2284C72
:10AFA00024681C190025257115882580618013806F
:10AFB000012111712188B1F5A04F07D02188204CC3
:10AFC000246809194B8001E0012111711E490968AB
:10AFD0008A421DD107E01C4909680988184B1B6883
:10AFE000C918194B1960184909680979002905D051
:10AFF00015490968134B1B689942ECD1124909683D
:10B00000104B1B68994203D00F4909680979002940
:10B010000C49096880B280180830814212F108009A
:10B020000421B0FBF1F303FB1103002B12F003002A
:10B03000002812F1080000E0002030BC704700003A
:10B0400024D6002028D600202CD600203300002053
:10B05000D6D6002010B50400200000F0D1F9200061
:10B0600010BD10B5040010000A000100200000F01F
:10B07000FFF9200010BD50F8041B61B150F8042BFB
:10B08000D30744BFA9F101039A18002342F8043BF7
:10B09000091FFAD1EFE7704738B50400C6480568C4
:10B0A00000E02D68002D0ED0280000F0B0FA002836
:10B0B000F7D02068A96808406968AA6811408842EA
:10B0C000EFD128000DE0BD480068002805D0BB483E
:10B0D000006800F09CFA002801D1002001E0B74888
:10B0E000006832BD2DE9F04104000E006568288833
:10B0F000FEF73AF980B2000BC0B2042804D0200059
:10B10000FEF7A8FA0020BAE02888FEF72DF9C0F370
:10B110000327BFB2BF006888FEF726F901006089E7
:10B12000BFB2B84203D3208989B2884204D220003A
:10B13000FEF790FA0020A2E089B22000FEF7FFF9A6
:10B140005FF001083700380000F061FA002811D0E4
:10B15000381D00280ED0786800280BD0286979683F
:10B16000884206D0390015F11000FEF7CDFB00280B
:10B1700000D00DE0B8F1000F04D05FF000088E4859
:10B18000076800E03F68B74200D13F68002FDAD17E
:10B19000310015F10C00FEF7B7FB00280CD15FF071
:10B1A0007040FEF7F2F8E96810EA01085FF06040CD
:10B1B000FEF7EBF8804504D12000FEF74BFA0020A3
:10B1C0005DE0002F04D12000FEF744FA002056E095
:10B1D000EF8843F6FF70FEF7C1F8074208D0200061
:10B1E00000F076FB0400002C01D1002047E06568E8
:10B1F0006F4806606F4805603100200000F0F8FCE1
:10B20000002835D12889FEF7AFF8C0B2C0B20128B6
:10B210000DD0062806D011280ED13100200000F0F4
:10B220002BFD25E031002000FCF7EAFE20E0310094
:10B23000200000F017FF1BE0310015F11000FEF7B1
:10B2400063FB002811D15FF07040FEF79EF829697A
:10B2500010EA01065FF06040FEF797F8864204D0DE
:10B2600065600221200000F0B4FF2000FEF7F2F933
:10B270004F48002101604F48002101600020BDE8D7
:10B28000F0812DE9F84F05000E0017009B460B9C3E
:10B29000DDF83080002F6FD05FF0140914212800F2
:10B2A000FEF78EF9002802D07FF001007DE0D5F88E
:10B2B00004A068891428BAF80800FEF755F8C0B24F
:10B2C0005FFA8BFB50EA0B2080B2FEF747F8AAF832
:10B2D0000800BAF80800FEF747F8E4B280B2000AA6
:10B2E00054EA002080B2FEF739F8AAF80800002FCF
:10B2F00001D1002000E03868CAF810001FFA89F96F
:10B30000042099FBF0F09DF8281051EA002050F439
:10B31000804080B2FEF722F8AAF800002889FEF7E4
:10B320001DF8AAF802000020AAF8060024480088A8
:10B33000FEF714F8AAF8040021480088401C2049B0
:10B340000880002E02D0306800280AD118F10400CD
:10B35000002801D1002001E0D8F80400CAF80C0050
:10B3600006E0002E01D1002000E03068CAF80C0091
:10B370000020AAF80A0003E0D5F804A01AF110078B
:10B38000B8F8280000280AD0B8F82800298988428F
:10B3900005D23A004146280000F06DFB05E03A0076
:10B3A00029004046D8F814309847BDE8F28F0000D5
:10B3B00010D6002014D6002038D600203CD600201D
:10B3C000B4D600202DE9FE4306000F0090469946B2
:10B3D0000A9D0B9C4046FFF75FFE002802D17FF0DC
:10B3E00003000BE00290E4B20194EDB200954B46ED
:10B3F000DBB2424639003000FFF743FFBDE8FE8371
:10B400004AB38B0707D0521E11F8013B00F8013BED
:10B4100021D08B07F7D183071ED1103A07D330B460
:10B42000B1E83810103AA0E83810F9D230BC530710
:10B4300024BFB1E80810A0E8081044BF51F8043B4D
:10B4400040F8043BD20724BF31F8022B20F8022B2E
:10B4500044BF0B7803707047083A07D3B1E808106F
:10B46000083A40F8043B40F804CBF7D25307E4E72E
:10B4700062F30F2262F31F42401810F0030308D05A
:10B48000C91A1FD3DB0748BF00F8012D28BF20F8D9
:10B49000022D130030B414461546103928BF20E998
:10B4A0003C00FAD8490728BF20E90C0048BF40F803
:10B4B000042D890028BF20F8022D48BF00F8012D77
:10B4C00030BC7047C91818BF00F8012DCB0728BF42
:10B4D00000F8012D70470000F8B50400069E079D96
:10B4E0000898002767600027A7600027E76000270B
:10B4F00084F82A70E661374E367884F82D60354E30
:10B500003678761C334F3E702061200000F00DF835
:10B510002000A847002801D0002005E02E48006840
:10B5200020602D4804602000F2BD70B504001500B5
:10B530001E00200000F009F82900200000F03FF86C
:10B540003100200000F034F870BD70B504000D002B
:10B5500028686168884224D02148006804E0C668F1
:10B560000121FEF79AFA3000002805D001686268D0
:10B570009142F4D0C068F7E71A48006802E02968F1
:10B580000160C06800280CD00028FAD001680029AA
:10B59000F7D0016862689142F3D1002DEFD100210C
:10B5A000EEE7002D01D1002000E02868606070BD4A
:10B5B000002901D1002100E00968C160704700291D
:10B5C00001D1002100E009688160704703490860EB
:10B5D00070470000D7D6002038D600203CD6002087
:10B5E00084D6002080D6002080B590F82A10C907A4
:10B5F0000CD490F82A1051F0010180F82A1090F82C
:10B600002A10890602D5011D01F0E8FA01BD90F863
:10B610002A0010F0010070472DE9F04104000D00F0
:10B620000026A542002D01D02868A042606840682D
:10B630008188002913D1676800686060142214F1C2
:10B6400008017868FFF706FD0121380000F0C8FD09
:10B650003800FEF73AF886193800FDF7FBFF6768F7
:10B6600009E07868B84607684046FEF72EF8861964
:10B670004046FDF7EFFF002FF3D12900200000F036
:10B6800077F8DFF864050088B042DFF85C050088D1
:10B69000801BDFF8541508803000BDE8F081F8B554
:10B6A00004000D000026002000210027DFF83425CB
:10B6B00012680AE0C37F92F81FC0634500D31000F0
:10B6C0001368002B00D011001268002A18D05369AB
:10B6D000D4F80CC0634509D19369D4F810C0634510
:10B6E00004D19389B4F804C0634501D0012300E07C
:10B6F0000023002BE4D07F1C0028DBD11000DFE703
:10B70000002802D0FFF788FF8619AE4201DA022F27
:10B71000C9DA3000F2BD70B504000D000520FEF757
:10B720006AFD0600002E0DD129002000FFF7B7FFAB
:10B73000A84203DB0520FEF75EFD0600002E01D1C6
:10B74000002014E0202200213000FFF78AFC0320B3
:10B75000F077DFF8900400683060DFF88804066056
:10B760001422210016F10800FFF774FC300070BDB0
:10B7700080B5DFF870241268824204D1DFF86414C7
:10B7800002680A6002E0002902680A6001000520E0
:10B79000FEF749FD01BD2DE9F84305000C00002628
:10B7A0000127D4F80490B9F80200FDF7DDFD8046CA
:10B7B000B9F80000FDF7D8FD1FFA88F8C0F30320A0
:10B7C00080B2B8EB8008B9F80600FDF7CDFDC004E3
:10B7D000C00C80B2C100606800220260818018EB5A
:10B7E0000101C1806A6808E0002E04D0F2888B88CD
:10B7F0009A4200D000270A680E00002A25D051681E
:10B800008388B1F804C063452DD20260002E1BD09E
:10B810008388B6F806C0634503D38988C3889942F4
:10B8200010D22000FDF751FFDFF8BC130988C0B229
:10B83000081ADFF8B41308802000FDF70BFF002082
:10B84000BDE8F283346000E06C60002A17D1002E5E
:10B8500012D08188F28891423460F18882889142C6
:10B860000DD000270BE082888B889A42D9D082883D
:10B87000CB889A42B8D2D4E7696800296C60A97F66
:10B88000C90723D5002F1FD0696849688988002916
:10B8900001D0002718E00600026801E006000268F7
:10B8A000002A05D05068F18882889142F6D000279E
:10B8B000002F09D0696800296968496881420168D8
:10B8C0000029C088A98B88423800B9E70020B7E773
:10B8D0002DE9F0470400002566683088FDF744FD37
:10B8E000C0F3032080B28000142805D02000FDF7AB
:10B8F000B1FE0020BDE8F087F088FDF735FDC004FB
:10B90000C00C80B25FEAC0087088FDF72DFD07000B
:10B910003088FDF729FDBFB2C0F3032080B2B7EB3A
:10B9200080092000FDF7D1FE8246AF4800885FFA0B
:10B930008AFA1AEB00000B2810DB5FFA8AFA5146EC
:10B940003000FFF7ACFE002807D0A74800885FFA58
:10B950008AFA1AEB00000B2800DBC7E7A14807684A
:10B9600001E03D003F68002F10D07869F1688842FF
:10B9700009D1B8693169884205D1B889B18888424E
:10B9800001D1012000E000200028EAD0002F09D1D9
:10B990005FFA8AFA51463000FFF7BDFE0700002F1C
:10B9A00010D1A3E7F088FDF7DFFCC0040AD1F889C5
:10B9B000FDF7DAFCC00405D01422310017F10800AD
:10B9C000FFF748FB884800885FFA8AFA1AEB000004
:10B9D00085490880F088FDF7C7FC800406D4B87F4D
:10B9E00050F00100B87719EB0800B8832100380047
:10B9F000FFF7D1FE00283CD0B88B1430B8837868AC
:10BA00004068D0F8008078684668142217F1080171
:10BA10003000FFF71FFBB88BFDF7A0FC7080002003
:10BA2000F080002070811421300001F04AF970810B
:10BA30007C680CE0D8F804607FF013014046FDF705
:10BA4000BFFD41462000FDF74FFED6F80080B8F15B
:10BA5000000FEFD129003800FFF78AFE2000FDF724
:10BA600034FE61490988C0B2081A5F490880200085
:10BA700040E700203EE72DE9F74F82B00398008DA4
:10BA8000ADF800001425022200210220FDF781FC00
:10BA90000400002C02D15FF0FF309EE0BDF80000F2
:10BAA00060812081514880088000606066681422AF
:10BAB000029841683000FFF7CDFAF088FDF754FC9A
:10BAC00081465FEAC947FF0C19F40050ADF8040045
:10BAD00002980089B0F1140ABDF80000143808215A
:10BAE00090FBF1F0ADF8020011E021004046FDF7B7
:10BAF00014FE049A41460398039B5B6998474046AD
:10BB0000FDF7A8FDBAEB0B0ABDF80200C7191FFA32
:10BB10008AFABAF1000F5CD0BDF8000014381FFAA1
:10BB20008AFA504502DB5FF0010801E05FF000088F
:10BB30005FFA88F8BDF80400F904C90C51EA00095D
:10BB40001FFA88F8B8F1000F01D159F400591FFA13
:10BB500088F8B8F1000F01D0D34604E0BDF8020028
:10BB600080B25FEAC00B2B009BB25A4692B216F12C
:10BB700014010298FDF739FE4519484680B2FDF7D9
:10BB8000EDFBF0801BF1140080B2FDF7E7FB708045
:10BB9000002070811421300001F093F870811FFAA9
:10BBA00088F8B8F1000F05D01AF1140189B220000D
:10BBB000FDF7C5FC002200210220FDF7EAFB8046CC
:10BBC000B8F1000F91D12000FDF744FD5FF0FF3088
:10BBD00003E02000FDF73EFD002005B0BDE8F08F3A
:10BBE0000000000018D60020B6D600208BCA002026
:10BBF0002DE9F8430400002566683089FDF7B4FBA1
:10BC0000C7B25FF000081B48D0F8009027E099F811
:10BC1000100000B23FB2B8421ED1D9F8140000287B
:10BC20001AD016F10C0322004946D9F81800D9F8A9
:10BC300014C0E04700280FD000240125B8F1000F00
:10BC40000AD0D9F80C00C8F80C000A480068C9F8F6
:10BC50000C000848C0F80090C846D9F80C90EDB226
:10BC6000002D02D1B9F1000FD1D12800C0B2BDE83A
:10BC7000F283000040D600202DE9F84304000E00B6
:10BC800065682888FDF770FB2189C0F3032080B226
:10BC90008000083081420EDB2888FDF765FBC0F389
:10BCA000032080B2800000B2414209B22000FDF7BB
:10BCB00087FC002803D02000FDF7CCFCBDE0D4F8C1
:10BCC0000490310015F11000FDF71EFE0700B9F8D1
:10BCD0000000FDF749FB8046B9F80200FDF744FB80
:10BCE000002200230021DFF858C3DCF8009002E0B6
:10BCF0004A46D9F80C90B9F1000F45D00023B9F8A5
:10BD000012C080B284451CD1FFB2002F07D1B9F117
:10BD1000000F0DD0D9F800C0BCF1000F08D0D9F841
:10BD200000C0D5F810E0F44502D0FFB2002F08D0D3
:10BD30000123002905D199F810C05FEA4C7C00D49A
:10BD40004946DBB2002BD3D0B9F814301FFA88F87B
:10BD50004345CDD119F10403002B09D0D9F80430A3
:10BD6000002B05D0D9F80430D5F80CC06345BFD1FD
:10BD7000002A09D0D9F80C00D060B1480068C9F891
:10BD80000C00AF48C0F80090B9F1000F00D189460F
:10BD9000B9F1000F03D17068296988424AD17FF058
:10BDA00007012000FDF70CFC002803D02000FDF760
:10BDB00051FC42E0B9F1000F15D0D9F81800002865
:10BDC0000DD01FFA88F8CDF8008015F10C03220081
:10BDD0004946D9F81C00D9F81840A0472DE02000AA
:10BDE000FDF738FC29E0FFB2002F1FD15FF0704053
:10BDF000FDF7CBFA296910EA01065FF06040FDF714
:10BE0000C4FA864212D02888FDF7AEFAC0F30320A8
:10BE100080B2800010F1080109B22000FDF7D0FBCC
:10BE20006068A8420321200000F0D3F92000FDF74C
:10BE300011FC02E02000FDF70DFCBDE8F18380B5A8
:10BE4000838A021D00F001F802BDF8B504000D0060
:10BE500016001F003000FFF71FF9002802D17FF005
:10BE6000030007E000903B009BB232002900200055
:10BE700000F001F8F2BD2DE9F04784B004000D0098
:10BE8000160099460C9F608A00280DD1628A210015
:10BE9000200000F069F882464FFA8AFABAF1000FE2
:10BEA00002D0504640B25CE008212800FDF788FB34
:10BEB000002810D0002208210120FDF76AFA8046F0
:10BEC000B8F1000F02D15FF0FF304AE02900404690
:10BED000FDF723FC00E0A846B8F80A000828D8F8C7
:10BEE00004A0608AFDF73AFAAAF80000484680B23A
:10BEF000FDF734FAAAF802000020AAF80600002C88
:10BF000002D02068002802D117F104090EE0206851
:10BF10007968884209D0A84504D04046FDF79AFBCD
:10BF20005FF000087FF008001BE0A146B8F80800A9
:10BF3000FDF714FAAAF80400029711200190A07AE4
:10BF40000090E37A320049464046FFF79AF982466C
:10BF5000A84504D04046FDF77DFB5FF00008504641
:10BF600040B204B0BDE8F08710B40024344B1B6825
:10BF700005E0984202D1E4B2002C0124DB68002BDA
:10BF8000F7D1002901D1002100E00968016092B2D7
:10BF9000002A19D14FF4805229490B6802E0521C43
:10BFA00027490B68002B0AD047F6FF7192B28A42EC
:10BFB00005D0598A92B29142F1D0DB68F2E7002BAA
:10BFC00002D07FF00A0009E04282E4B2002C04D1E2
:10BFD0001B490968C1601A490860002010BC7047FD
:10BFE00070B504000D001600608A002809D1628A2D
:10BFF00021002000FFF7B8FF40B2002801D040B276
:10C000001AE0002D01D1002000E028686060A682BF
:10C01000207C50F0040020740948006800E0C068EB
:10C02000002803D08442FAD1002005E004480068CB
:10C03000E06003480460002070BD8161C261704708
:10C04000B0D6002010B50120FEF7D5F80400002C72
:10C0500006D0202200212000FFF703F8FF20E07225
:10C06000200010BD2DE9FE4304000D0066683088F5
:10C07000FDF77AF9C0F3032000B287003FB279429E
:10C0800009B22000FDF79CFA002802D1208904287B
:10C0900003D22000FDF7DEFA42E060680078C0B20B
:10C0A000082840F092805FF001085FF07040FDF7D3
:10C0B0006CF9316910EA01095FF06040FDF765F93C
:10C0C000814501D15FF00008290016F11000FDF74D
:10C0D0001BFC002801D05FF00008B8F1000F03D16D
:10C0E0002000FDF7B7FA1BE020890828D1D32000F3
:10C0F00000F0EEFD002803D02000FDF7ABFA0FE0C2
:10C1000022212000FDF75CFA00284AD0390009B24C
:10C110002000FDF755FA002804D02000FDF79AFA18
:10C12000BDE8F783002221890220FDF732F980461D
:10C13000B8F1000FF1D0B8F80A003FB217F10801CA
:10C14000884221004046FDF7F1FA0028E5D1D8F8F1
:10C1500004603FB2794209B24046FDF731FA002847
:10C16000DBD12000FDF776FA44466068F168326959
:10C17000F260316100210170002141803089FDF7BA
:10C18000F3F850F47F4080B2FDF7E8F830810020EA
:10C190007081390009B22000FDF712FA002808D09A
:10C1A00013E07FF021012000FDF70AFA0028DCD01F
:10C1B000B3E702950120019000200090FF230022A8
:10C1C00016F10C012000FFF75CF82000FDF742FAA1
:10C1D000A6E780B50A00D2B2032100F008F801BD3D
:10C1E00080B50A00D2B20B2100F001F801BD2DE9A3
:10C1F000F04383B0040088469146002224210120A8
:10C20000FDF7C7F80500002D26D068892428666848
:10C210006F6887F8008087F801900020B8800020C0
:10C22000F8801C22616868680830FEF713FF002060
:10C2300078806989380000F044FD78800120019001
:10C2400000200090FF2316F10C0200212800FFF7C8
:10C25000B9F82800FDF7FEF9BDE8F78338B504000A
:10C26000002C606800280AE025002468686800281F
:10C270006868FDF7EFF929000620FDF7D4FF002CD0
:10C28000F2D131BD10B5002455E0E4B21420DFF83E
:10C29000541800FB0410C07B401CE4B21421DFF8EA
:10C2A000442801FB0421C873E4B21420DFF83418D9
:10C2B00000FB0410807B022808D1E4B21420DFF8D0
:10C2C000241800FB0410C07BF02811D2E4B2142023
:10C2D000DFF8101800FB0410807B01282AD1E4B29B
:10C2E0001420DFF8001800FB0410C07B022821D3C3
:10C2F000E4B21420DFF8EC1700FB041000680028FB
:10C3000010D0E4B21420DFF8DC1700FB0410006842
:10C31000FFF7A4FFE4B21420DFF8C81700FB0410F5
:10C3200000210160E4B21420DFF8B81700FB04100C
:10C3300000218173641CE4B20A2CA6D310BD2DE940
:10C34000F04704000A200A220A23002500260027BD
:10C350005FF00A0C5FF0000E002C20D0DFF8885749
:10C360002D785FF01408DFF87C9708FB0595AD7B0E
:10C37000022D14D12568DFF8708798F800805FF0EF
:10C380001409DFF860A709FB08A8D8F80480454520
:10C3900005D1DFF8540790F9000040B20AE100250A
:10C3A00014E0EDB25FF01408DFF8389708FB059849
:10C3B00098F80F80FFB2B84507D32A00EDB21427D2
:10C3C000DFF8208707FB0587FF7B6D1CEDB20A2D88
:10C3D00080F08E805BB20A2B0DD1EDB25FF01408B5
:10C3E000DFF8009708FB059898F80E80B8F1000F69
:10C3F00001D12B00E9E7EDB25FF01408DFF8E49615
:10C4000008FB059898F80E80B8F1010F4DD1002C6B
:10C4100012D0D4F80080EDB25FF01409DFF8C4A6A2
:10C4200009FB05A9D9F80490C84505D1DFF8B8067D
:10C430000570280040B2BDE0EDB25FF01408DFF8EF
:10C44000A49608FB0598D8F80080B8F1000F17D023
:10C45000EDB25FF01408DFF88C9608FB059898F8A9
:10C460000F805FFA8EFEF045AFD3AC46EDB25FF0C1
:10C47000140EDFF870860EFB058E9EF80FE0A4E721
:10C48000EDB25FF01408DFF85C9608FB059898F8A9
:10C490000F80F6B2B04598D32800EDB21426DFF82D
:10C4A000448606FB0586F67B8FE7EDB25FF0140845
:10C4B000DFF8309608FB059898F80E80B8F1020F67
:10C4C00083D1002C3FF46DAFD4F80080EDB25FF063
:10C4D0001409DFF810A609FB05A9D9F80490C8458E
:10C4E0007FF45FAFDFF800060570280040B261E01E
:10C4F0005BB20A2B17D111F00301012915D15BB2F0
:10C500000A2B15DA1D00EDB20A2DEDB21420DFF86A
:10C51000D41500FB051000218173002C3DD0002CA8
:10C5200033D1002032E08907E9D55FF0FF3041E0E8
:10C5300052B20A2A09DA1500EDB21420DFF8A41568
:10C5400000FB051000680028DDE740B20A2801DA88
:10C550000500D8E74FFA8CFCBCF10A0F12DA6546E9
:10C56000EDB21420DFF87C1500FB05100068FFF722
:10C5700075FEEDB21420DFF86C1500FB05100021EC
:10C580000160C0E75FF0FF3014E02068EDB21421D5
:10C59000DFF8502501FB05214860EDB21420DFF8DB
:10C5A000441500FB05100021C173DFF83C05057040
:10C5B000280040B2BDE8F087F8B504000D006E68B1
:10C5C00094F820000628062009E0401EC0B2C0B240
:10C5D000C15C8155C0B28119C0B2875C8F71C0B295
:10C5E0000128F2D24FF40060FCF7B8FEB0812900B8
:10C5F0002000A2699047F2BD2DE9F04104000E0031
:10C6000015001F0094F820000628002E15D0306871
:10C61000002812D021003000FDF776F900280CD157
:10C620005FF07040FCF7B1FE316810EA01085FF07E
:10C630006040FCF7AAFE804502D17FF009005BE074
:10C640003900C9B23000FFF77AFE060076B2002E3C
:10C6500002D5300040B24FE076B21420DFF88414E7
:10C6600000FB06100221817376B21420DFF87414E7
:10C6700000FB0610046106200BE0401EC0B276B23B
:10C680001421DFF8602401FB06214118C0B2425D8D
:10C690000A72C0B20128F0D276B21420DFF8441436
:10C6A00000FB06100021C1731CE076B21420DFF8F5
:10C6B000341400FB0610016876B21420DFF824243D
:10C6C00000FB06200A6802604F680620FDF7ABFDFC
:10C6D0002B0014F1210239002000FFF76DFF380014
:10C6E000FCF7B8FF76B21420DFF8F81300FB061051
:10C6F00000680028D9D10020BDE8F08110B50028DD
:10C700000ED04968D1F81A2083681A4043688468BB
:10C7100023409A4204D100238A1D1A31FFF76CFF8F
:10C7200010BD2DE9FC4104000D001600002C00F0A6
:10C73000A18070892A2803D23000FCF78BFF99E092
:10C740007768B7F80E800120FCF708FE804517D106
:10C75000B7F8128040F20460FCF700FE80450FD16C
:10C76000B7F810804FF40060FCF7F8FD804507D162
:10C77000B7F80C8040F60600FCF7F0FD804503D0CA
:10C780003000FCF767FF75E0042217F11C0100A8D8
:10C79000FEF760FC042217F1260101A8FEF75AFCFF
:10C7A0006068002802D15FF0000808E00198616825
:10C7B000884202D15FF0010801E05FF000085FFAF3
:10C7C00088F8B8F1000F07D0012317F1160200A96D
:10C7D0002000FFF711FF06E0002317F1160200A961
:10C7E0002000FFF709FFB88AFCF7B8FD012802D046
:10C7F00002283BD03BE05FFA88F8B8F1000F34D054
:10C800000220FCF7ABFDB88217F1260017F11C01DE
:10C810000422FEF7F5FD0422211D17F11C00FEF78E
:10C8200019FC94F820000628062016E0401EC0B22D
:10C83000C119C0B2C219927D81F82020C0B2C119BD
:10C84000897DC0B2C155C0B2C119C0B2425D8A75FE
:10C85000C0B2C119C0B2425D8A71C0B20128E5D22E
:10C8600031002000A2699047FFE700E0FFE73000B9
:10C87000FCF7F0FEBDE8F381F0B583B004000D00D5
:10C8800016000E212800FCF79BFE002802D07FF046
:10C8900001000FE0002721003000FDF735F80028E7
:10C8A00009D00FF2C4373B0014F121022900200007
:10C8B000FFF782FEFEBD5FF07040FCF766FD316859
:10C8C00010EA01075FF06040FCF75FFD87421DD171
:10C8D00001208DF8000000208DF801005E208DF809
:10C8E00002003068FCF751FD000C10F07F008DF85D
:10C8F00003003068FCF749FD000A8DF80400306839
:10C90000FCF743FD8DF8050000AFCCE73068A16867
:10C9100008406168A2681140884204D0E06800289D
:10C9200007D004F20C062A003100200000F004F8C1
:10C93000C0E77FF00300BDE72DE9F8430700884614
:10C94000160007F221095FF0FF3439004046FCF77A
:10C95000DBFF002814D15FF07040FCF716FDD8F81B
:10C96000001010EA01055FF06040FCF70EFD854203
:10C9700006D0B8F1000F03D0D8F80000002802D18B
:10C980007FF00900ACE001214046FFF7D8FC05002C
:10C990006DB2002D02D5280040B2A1E06DB2142086
:10C9A000504900FB0510807B002806D16DB2142091
:10C9B0004C4900FB0510012181736DB214204949D7
:10C9C00000FB0510807B012806D06DB2142045497C
:10C9D00000FB0510807B02286DB21420414900FB4A
:10C9E0000510807B012801D0002E04D1414638007B
:10C9F00000F0F4F80400002E70D06DB21420394914
:10CA000000FB0510807B02280DD16DB21420354942
:10CA100000FB051010F108034A4631003800FFF70B
:10CA2000CBFD04005AE06DB214202E4900FB051026
:10CA3000807B012852D10020370000E03F68002FA2
:10CA400009D079893A89914201D139680029397B25
:10CA50000129F3D00120002812D0002239890320B7
:10CA6000FCF797FC0700002F0ED031003800FCF7D0
:10CA70005DFE002808D03800FCF7ECFD002703E03D
:10CA800037003800FCF72AFE002F27D00620FDF7DC
:10CA9000B2FB00281FD00021016047606DB2142155
:10CAA000104A01FB0521096800290CD06DB2142140
:10CAB0000C4A01FB0521096800E009680A68002AA0
:10CAC000FBD1086005E06DB21421064A01FB052187
:10CAD0000860002402E03800FCF7BCFD200040B2F2
:10CAE000BDE8F283BCD10020D0D600202DE9F74F5D
:10CAF00005001E000C9FDDF83480DDF838900F9C97
:10CB00005FF0000B00222A210320FCF742FC824642
:10CB1000BAF1000F02D15FF0FF305DE0BAF80A0011
:10CB20002A28DAF804B0200080B2FCF717FCABF832
:10CB3000140095F82000062806201BE0401EC0B215
:10CB400010EB0B01C0B2825D8A75C0B210EB0B0115
:10CB5000C0B210F8082081F82020C0B2C0B20299FB
:10CB6000415C00F80B10C0B210EB0B01C0B2019A8F
:10CB7000825C8A71C0B20128E0D21BF11C0039002E
:10CB80000422FEF73DFC1BF1260049460422FEF775
:10CB900037FC0120FCF7E2FBABF80E004FF400601D
:10CBA000FCF7DCFBABF8100040F20460FCF7D6FBAE
:10CBB000ABF8120040F60600FCF7D0FBABF80C0017
:10CBC00051462800AA69904783465046FCF742FD2B
:10CBD0005FF0000A584640B2BDE8FE8F00B585B050
:10CBE0000122039202910FF288010191011D00912F
:10CBF00010F121030FF2700210F12101FFF776FF0F
:10CC000005B000BD38B504000D0060688089FCF7F0
:10CC1000A5FBB0F5006F04D040F60601884215D0A0
:10CC20001BE021002800FFF769FD7FF00D012000C7
:10CC3000FCF7C6FC002804D02000FCF70BFD002404
:10CC400003E029002000FEF74DFA0AE0220015F16A
:10CC500021012800FFF765FD03E02000FCF7FAFC46
:10CC60000024002032BD0000FFFFFFFFFFFF000097
:10CC7000000000000000000010B5002208E003786A
:10CC80001B02401C04782343401C9BB29A18891E47
:10CC900089B20229F3D289B2012903D300780302B1
:10CCA0009BB29A1890B210EB1242100C00040028AC
:10CCB00002D090B210EB1242100080B2FCF74EFB93
:10CCC00010BD80B589B2FFF7D7FFC04380B202BD67
:10CCD00070B505000026002417E069896868FFF731
:10CCE000CBFF8619B0B210EB16466889022190FB83
:10CCF000F1F202FB1102002A06D0D4F10104F0B2D5
:10CD0000C6F3072151EA00262D68002DE5D1E4B2D3
:10CD1000002C04D0F0B2C6F3072151EA0026F043FC
:10CD200080B270BD80B5DFF81419088080B200F0C1
:10CD300059FD002002BD00B5DFF804094FF4FA6187
:10CD40000160DFF8000900210160DFF8FC08002124
:10CD50000160DFF8F80800210160DFF8F008002129
:10CD60004160DFF8EC0800210160DFF8E8080021ED
:10CD70000160DFF8E40800210160DFF8E00800212D
:10CD80000170DFF8DC0800210180DFF8D8080021FD
:10CD90000180DFF8D408D0F80B10DFF8D00801606C
:10CDA000DFF8C408D0F80F10DFF8C4080160DFF81E
:10CDB000B808D0F8130000F081FFDFF8B818086059
:10CDC000DFF8A408D0F8170000F078FFDFF8A81803
:10CDD0000860DFF89408D0F81B0000F06FFFDFF860
:10CDE0009C180860DFF88008D0F81F10DFF8900862
:10CDF0000160DFF87408D0F82300DFF844180860F9
:10CE0000DFF86408D0F82700DFF878180860DFF84A
:10CE10005808B0F82B00DFF870180880DFF82008F9
:10CE2000006800F041FFDFF85818096800F054FF6F
:10CE300000F0BEFFDFF854180880DFF850080088C3
:10CE400041F28931884204D3DFF8400841F2883149
:10CE50000180DFF834080088002806D1DFF8F807E1
:10CE6000DFF828180988016005E0DFF8EC07DFF833
:10CE7000181809880160DFF81408008800BD30B573
:10CE80000400DFF80008006800F00EFF0500200035
:10CE900000F00AFF0100280000F0ACFFDFF8A41743
:10CEA0000860DFF8A8074068DFF8A0170860DFF81F
:10CEB000D0070068DFF88C17096801F019F8DFF86F
:10CEC0008C174860DFF884074068DFF8801709682E
:10CED00001F00EF8DFF87C170860DFF878070068CB
:10CEE00001F078F831F00041DFF8A427DFF8A4372B
:10CEF00001F098F803D8DFF85C0700210160DFF843
:10CF00004C070068002101F0A5F808D0DFF83C07C5
:10CF10000068DFF83817496801F09CF803D1DFF8A2
:10CF2000340700210160DFF82407406801F052F85F
:10CF300031F000410122DFF8603701F099F844D266
:10CF4000DFF80C07006801F045F831F000410022DD
:10CF5000DFF8443733F0004301F064F80DD8DFF810
:10CF6000F0060168DFF8E406406800F0B5FE002135
:10CF700001F096F801D200203CE0DFF8D406016809
:10CF8000DFF8C806406801F09DF8DFF8C4160860B5
:10CF9000DFF8BC06006801F01DF831F00041002206
:10CFA000DFF8F43601F03EF813D8DFF8A406006885
:10CFB000002101F075F802D25FF07A5001E0DFF84D
:10CFC000DC06DFF88C16086003E0DFF88406002139
:10CFD0000160DFF878060168DFF87006406800F04D
:10CFE0007BFE002101F0B0F803D2DFF864060021D7
:10CFF0000160002030BD38B5FFF741FFDFF84C0677
:10D0000040685FF03F4101F09FF83FD2DFF84806EB
:10D01000006801F0ABF804000D00DFF85806016865
:10D02000DFF82806406800F057FE00F0D3FF00222A
:10D03000DFF86C3601F0B2F822002B0001F080F925
:10D0400004000D00DFF830060168DFF80406006810
:10D0500000F042FE00F0BEFF22002B0001F070F94C
:10D0600004000D00DFF814060168DFF8E805006829
:10D0700000F032FE00F0AEFF22002B0001F060F95C
:10D0800001F0D2F9DFF8D01508601EE2DFF8BC0528
:10D090004068DFF8101601F057F83FD2DFF8B80506
:10D0A000006801F063F804000D00DFF8C8050168AE
:10D0B000DFF89805406800F00FFE00F08BFF0022BB
:10D0C000DFF8E43501F06AF822002B0001F038F9AE
:10D0D00004000D00DFF8A0050168DFF874050068A2
:10D0E00000F0FAFD00F076FF22002B0001F028F995
:10D0F00004000D00DFF884050168DFF858050068BA
:10D1000000F0EAFD00F066FF22002B0001F018F9A4
:10D1100001F08AF9DFF840150860D6E1DFF82C0548
:10D120004068DFF8881501F00FF83FD2DFF82805D6
:10D13000006801F01BF804000D00DFF838050168F5
:10D14000DFF80805406800F0C7FD00F043FF00224B
:10D150005FF0804301F022F822002B0001F0F0F88C
:10D1600004000D00DFF810050168DFF8E404006832
:10D1700000F0B2FD00F02EFF22002B0001F0E0F8DD
:10D1800004000D00DFF8F4040168DFF8C80400684B
:10D1900000F0A2FD00F01EFF22002B0001F0D0F8ED
:10D1A00001F042F9DFF8B01408608EE1DFF89C046A
:10D1B0004068DFF8FC1400F0C7FF3FD2DFF89804A6
:10D1C000006800F0D3FF04000D00DFF8A804016838
:10D1D000DFF87804406800F07FFD00F0FBFE0022DD
:10D1E000DFF8D03400F0DAFF22002B0001F0A8F8BD
:10D1F00004000D00DFF880040168DFF854040068C3
:10D2000000F06AFD00F0E6FE22002B0001F098F825
:10D2100004000D00DFF864040168DFF838040068DA
:10D2200000F05AFD00F0D6FE22002B0001F088F835
:10D2300001F0FAF8DFF82014086046E1DFF80C048A
:10D240004068DFF8741400F07FFF3FD2DFF8080475
:10D25000006800F08BFF04000D00DFF8180401687F
:10D26000DFF8E803406800F037FD00F0B3FE00226D
:10D27000DFF8483400F092FF22002B0001F060F844
:10D2800004000D00DFF8F0030168DFF8C403006854
:10D2900000F022FD00F09EFE22002B0001F050F86D
:10D2A00004000D00DFF8D4030168DFF8A80300686C
:10D2B00000F012FD00F08EFE22002B0001F040F87D
:10D2C00001F0B2F8DFF890130860FEE0DFF87C03AD
:10D2D0004068DFF8EC1300F037FF3DD2DFF8780349
:10D2E000006800F043FF04000D00DFF888030168C8
:10D2F000DFF85803406800F0EFFC00F06BFEDFF849
:10D30000C423DFF8C43300F049FF22002B0001F0F2
:10D3100017F804000D00DFF860030168CC480068CE
:10D3200000F0DAFC00F056FE22002B0001F008F8B5
:10D3300004000D00DFF844030168C648006800F0EF
:10D34000CBFC00F047FE22002B0000F0F9FF01F0BB
:10D350006BF8C1490860B8E0BC484068DFF86C135E
:10D3600000F0F2FE36D2BC48006800F0FFFE040078
:10D370000D00C0480168B548406800F0ADFC00F001
:10D3800029FED34AD34B00F009FF22002B0000F006
:10D39000D7FF04000D00B8480168AD48006800F0F0
:10D3A0009BFC00F017FE22002B0000F0C9FF0400D8
:10D3B0000D00B2480168A748006800F08DFC00F03D
:10D3C00009FE22002B0000F0BBFF01F02DF8A2495E
:10D3D00008607AE09D484068BF4900F0B5FE37D24A
:10D3E0009D48006800F0C2FE04000D00A1480168DD
:10D3F0009648406800F070FC00F0ECFD5FF066328B
:10D40000B64B00F0CBFE22002B0000F099FF040089
:10D410000D00994801688E48006800F05DFC00F03E
:10D42000D9FD22002B0000F08BFF04000D00934873
:10D4300001688848006800F04FFC00F0CBFD220036
:10D440002B0000F07DFF00F0EFFF834908603CE017
:10D450007E484068002100F077FE36D27E480068A2
:10D4600000F084FE04000D0082480168774840689F
:10D4700000F032FC00F0AEFD5FF03332984B00F06C
:10D480008DFE22002B0000F05BFF04000D007A48A7
:10D4900001686F48006800F01FFC00F09BFD22004F
:10D4A0002B0000F04DFF04000D007448016869482E
:10D4B000006800F011FC00F08DFD22002B0000F050
:10D4C0003FFF00F0B1FF644908606048406885494B
:10D4D00000F0E6FD3AD86048006800F047FE04001E
:10D4E0000D00644801685948406800F0F5FB00F001
:10D4F00071FD5FF033327C4B00F050FE22002B00B8
:10D5000000F01EFF04000D005B48016850480068F1
:10D5100000F0E2FB00F05EFD22002B0000F010FFA7
:10D5200004000D00554801684A48006800F0D4FB2B
:10D5300000F050FD22002B0000F002FF00226B4B98
:10D5400000F0FEFE00F070FF434908603F4840686D
:10D55000002100F0A5FD40D23C484068614900F040
:10D56000F3FD3AD23C48006800F000FE04000D00D4
:10D57000404801683548406800F0AEFB00F02AFDE5
:10D580005FF03332564B00F009FE22002B0000F012
:10D59000D7FE04000D00384801682D48006800F0EF
:10D5A0009BFB00F017FD22002B0000F0C9FE0400D9
:10D5B0000D00324801682748006800F08DFB00F03C
:10D5C00009FD22002B0000F0BBFE00223B4B00F0C7
:10D5D000B7FE00F029FF204908601C48406800F0B1
:10D5E000F9FC31F00041424A424B00F041FD0DD2BE
:10D5F0001848006800F0EEFC31F0004101222F4B8A
:10D6000000F036FD02D21248002101601248006885
:10D6100041F28931884203DB0F4841F288310160D1
:10D620000D480068002802D50B48002101600A4817
:10D630000068FFF777FB002032BD0000BED6002057
:10D6400050D6002060D6002064D6002008D60020E6
:10D650005CD6002058D6002068D60020DBD60020FB
:10D66000C4D60020C8D60020F4D4002044D6002020
:10D6700048D60020180000201C00002020000020B8
:10D680004CD6002054D60020CAD60020C6D6002092
:10D690009B9999999999B93F0000D03F000080BEAD
:10D6A00000003440999999BE00002E40CCCC4CBE6D
:10D6B000999919BE0000F83FCCCCCCBD0000F03FDA
:10D6C000CCCC4CBDCDCCCCCCCCCCEC3F8FC2F5BCC3
:10D6D0009A9999999999E93F0AD723BC6666E63FDA
:10D6E0003333E33FCDCC4C3D3333D33F0000E03FF9
:10D6F000FDA9F1D24D62503F80B50121DFF87803DA
:10D7000000F03AFF00228021DFF8700300F0FEFFF6
:10D710000021DFF86C0301F0A9F8DFF86803018845
:10D72000DFF85C0301F0B0F801228021DFF84C0340
:10D7300000F0ECFF0121DFF8480301F097F801BD8C
:10D7400080B51021DFF8300300F016FF00228021A1
:10D75000DFF8340300F0DAFF0021DFF8300301F0D6
:10D7600085F8DFF82C030188DFF8200301F08CF83E
:10D7700001228021DFF8100300F0C8FF0121DFF84B
:10D780000C0301F073F801BD30B492B2140A0BE03F
:10D7900005786540401CEDB20FF20C342C5D54400E
:10D7A000EDB20FF20442AA5C8842F1D3DBB2002B47
:10D7B00006D10020E4B220000002D2B2104305E0FE
:10D7C0000020D2B210000002E4B2204380B230BC8C
:10D7D000704780B500234FF6FF7289B20918FFF732
:10D7E000D3FF02BD00B58DB0DFF8A812097800297B
:10D7F0003DD100218DF8001006218DF80110FA218D
:10D800008DF8021001218DF8031080B2010A8DF805
:10D8100004108DF80500062100A8FFF7DAFF80B29A
:10D82000010A8DF806108DF8070000200EE080B286
:10D83000DFF8641280B200AA825C425480B2DFF842
:10D840005C1280B200AA825C4254401C80B208285C
:10D85000EDD3DFF83C0208210180DFF8280208211F
:10D860000180FFF76DFFFFF747FF0DB000BDDFF848
:10D8700024120978012936D100218DF800100621E3
:10D880008DF8011020218DF8021001218DF8031070
:10D8900080B2010A8DF804108DF80500062100A859
:10D8A000FFF797FF80B2010A8DF806108DF8070088
:10D8B00000200EE080B2DFF8E01180B200AA825CA6
:10D8C000425480B2DFF8D41180B200AA825C425484
:10D8D000401C80B20828EDD36D48082101806948BA
:10D8E00008210180BDE76B490978022950D180B237
:10D8F00000F046FC00226A4B00F0F0FF0022694B6A
:10D9000000F04CFC00F090FD01218DF8001010217A
:10D910008DF8011000218DF8021063218DF803109D
:10D9200000218DF8041002218DF8051004218DF8D6
:10D93000061004218DF807107F218DF8081080B2A1
:10D94000010A8DF809108DF80A000B2100A8FFF7D5
:10D9500040FF80B2010A8DF80B108DF80C000020FA
:10D960000CE080B24C4980B200AA825C425480B282
:10D970004A4980B200AA825C4254401C80B20D2801
:10D98000EFD343480D2101803E480D21018068E717
