:020000040800F2
:10000000F8E4002015E6000811E4000813E40008F5
:1000100015E4000817E4000819E4000800000000D7
:100020000000000000000000000000001BE40008C9
:100030001DE40008000000001FE4000821E400089F
:1000400045E6000849E600084DE6000851E60008CC
:1000500055E6000859E600085DE6000861E600087C
:1000600065E6000869E600087BE4000871E6000820
:1000700075E6000879E600087DE6000881E60008DC
:1000800085E6000889E600088DE6000891E600088C
:1000900095E6000899E600089DE60008C9E4000816
:1000A000A5E60008A9E60008ADE60008B1E60008EC
:1000B00025E40008B9E60008BDE60008C1E600082E
:1000C000C5E60008C9E60008CDE60008D1E600084C
:1000D000D5E60008D9E60008DDE60008E1E60008FC
:1000E000E5E60008E9E60008EDE60008000000008B
:1000F0000000000000000000000000000000000000
:100100000000000000000000F1E60008F5E600082D
:10011000F9E60008FDE6000801E7000805E7000829
:1001200009E700080DE7000811E7000815E70008D7
:1001300019E7000859E4000821E7000825E700084E
:1001400029E700082DE7000831E7000835E7000837
:10800000F0B583B005460E46DFF8AC4A68682062DA
:10801000008800F062FDC0F30320696801EB800076
:10802000E061206A008800F058FD000A00F00F00AF
:1080300000F048F910B92889142803D2284600F026
:108040003EFEF7BD3146206A103000F019FF0028CF
:10805000F4D14FF0704000F04DFD06464FF0604007
:1080600000F048FD216A096931408142E6D0E069AB
:1080700000F0E3FC000B00F025F90028DED1E069F8
:10808000008800F02AFDE1690880488800F025FD9D
:10809000E1694880486800F02DFDE1694860606250
:1080A000886800F027FDE1698860A062C88900F057
:1080B00014FDE169C881888900F00FFD00F03F00E0
:1080C000207010F0030018BF012029894018208378
:1080D0000021DFF8E8793E68E36901E03146F6689F
:1080E000226AB6B3B6F820C0B3F800E0F445F5D183
:1080F000B6F818C0B3F802E0F445EFD1D6F804C0E2
:10810000D2F80CE0F445E9D1D6F800C012699445E4
:10811000E4D121B1F068C8603868F0603E600020AA
:108120006060288920826868E060A5606361002043
:10813000E0626070F26F002A5AD0D6F884C06046C0
:10814000002850D0002331467069E04700282BD129
:108150004CE0DFF86C190E6800E0F6682EB3318C45
:108160001F88B942F9D1318B5F88B942F5D1716866
:10817000D768B942F1D131681769B942EDD1616A66
:1081800080B24118726A8A1A012AA8BF716240B18E
:1081900096F8220040F0020086F82200304601F0F6
:1081A00057F8304601F054F848E70021DFF8146929
:1081B000306801E00146C068002879D005D0076822
:1081C0001FB1D2F810C06745F4D1078BB3F802C0D5
:1081D0006745EFD121B1C268CA603168C1603060C3
:1081E00000F076F82AE7104600F069FD0020F067FD
:1081F0002663304600F0E0F80546002020636FF06B
:108200000400854248D06078010710D5D6F8902048
:10821000100003D06FF00501706990473146384671
:1082200001F0D3FC3146022001F05EFD34E0C006CF
:10823000F4D40025B6F86C203AB1D6F88030180096
:1082400003D03146706998470546E06A98B12178B5
:10825000090703D5417B41F001014173D6F88450F1
:10826000290021D00023024631467069A847050045
:108270001CBFE06AF0676078800609D5D6F88450A4
:10828000280006D00023002231467069A847054621
:1082900015B9304600F0DCFFA068002803D000F0DC
:1082A0000EFD0020A060F7BD002500F008FDE2E70C
:1082B000988900F012FC400703D400F06DF801F03B
:1082C00017F9BBE68000414209B2284600F0C7BC5E
:1082D0007CB50546DFF8E0472078C10606D500F0FA
:1082E0005BF8401C01F004F9002076BD8007FBD547
:1082F000687C01F0DDFB060002D14FF0FF3076BD57
:10830000206A10F110010CBF002101693160298B36
:10831000318310F10C010CBF0020C0687060E0696F
:108320000188318403213174616A4A1C7262F262ED
:10833000C089A6F85C00A6F85400481E306668693B
:108340007061E869F061288940F299110840308134
:10835000DFF868070168F1600660304600F073FBE3
:10836000311D308F01F074FC308701200190002016
:108370000090122300220146304600F0E1FD040087
:1083800005D00021304601F0EAF9204676BD30469E
:10839000BDE8764000F05CBF206AE1690A8801927E
:1083A0004988009100F10C0300F11002606A218BF2
:1083B0000918A06A70470000F0B583B00446DFF8E2
:1083C000F856287841071DD5207C022810D1A86ACC
:1083D000A16D884214D1687840F00800687094F864
:1083E000220000F0FE0084F822006FF00500FEBDC0
:1083F000686A616A401A03D4218D401A0128EADBB9
:108400000020FEBD800707D5207C022804D0032869
:1084100002D000F027F9F3E7DFF8AC06006820632C
:10842000002084F89D00204600F00DFB2878DFF83E
:108430009C66DFF88876217C891E0729E0D8DFE872
:1084400011F009006700A000A600E000A000F700FE
:108450000101D5E700F01200122845D1A06F00F00D
:10846000E7FAA96A401C81423ED1B4F86E00401C74
:10847000A4F86E00686A421C6262E262E164E96923
:10848000C989A4F85C10401E206604202074211DB8
:10849000208F01F0DDFB20870A214843A4F8540017
:1084A000208FB4F85210012908BF4000A4F85200F0
:1084B000B4F87000401EA4F87000A06F0168A167B6
:1084C00019B94FF0FF31E18603E00021E18684F81D
:1084D0004A1001F0D1FAD4F88830180099D000225F
:1084E00021466069984794E72878C00688D5286AAD
:1084F000E9690A8801924988009100F10C0300F1B2
:108500001002686A298B0918A86A00F0F1FF77E762
:10851000C1062BD5A86AE16C411A491EE7D4A16DAA
:10852000401A0128E3DA04202074E36918000BD014
:10853000002221466069984730B10121204601F0B0
:108540000EF96FF00400FEBDB4F8526000F088F838
:10855000208F012E08BF4000A4F8520068788006E2
:1085600003D500F07FF80720207449E78007FCD589
:10857000686A616A491E884202D1204601F022F8E9
:108580003EE700F06DF868788006EAD438E700F03E
:1085900067F8A86A297801F010016A78920629D54F
:1085A00021B3A16D884221D100F05CF8204601F092
:1085B000F4FA3868A04203D13868C06838600BE02C
:1085C00030603068002807D0C0680028F8D0A0428A
:1085D000F6D13068E168C1600020E0600A202074B4
:1085E000DFF8DC040168E160046009E700F03AF8B4
:1085F0000820B9E70029F8D0A16D8842F5D10620FE
:10860000B2E700F02DF868788006EED500F02AF881
:10861000204601F0C2FA3868A042CDD03060306800
:108620000028D9D0C0680028F8D0A042F6D1D0E701
:1086300000F016F82878C00611D5A86AA16D884206
:108640000DD1E5E700F00CF82878C00607D5A86A38
:10865000A16D884203D1687840F010006870CFE6C1
:10866000204608E094F8220040F0020084F822003E
:10867000204600F0EDBD2DE9F04780464FF000099F
:1086800008F11006DFF830743878C00640F10F8129
:1086900008F23404D4F830E0B4F828C00EEB0C0132
:1086A000E56AFB69B86A7A6AAD1A09D402D1BEEBF1
:1086B000000505D486450DD1B3F80EE0F44509D286
:1086C000DB892385E262206323B198F89C200AB1FC
:1086D00088F89C90A269824233D1A4F83890206B2C
:1086E000228D1018884223D1207F401C2077C0B2F1
:1086F00003281DD3606C00281AD0B07C400718D422
:10870000404600F05FFFE08B218D814234BF480876
:108710004008A188B0EB410FB8BF48002084208CEE
:1087200001EB41010818E083B07C40F00400B07414
:108730007BE0E08BA188091889B2884275D2E18379
:1087400073E0811A491E65D4616A411A012961DA10
:10875000B17C490705D5B17C01F0FB01B174218CD6
:10876000E18384F81690B4F91010B4F9122002EBEA
:10877000E101A182A169411A2187628F891861876D
:1087800084F81C90A06198F8100004281CD3A088DD
:10879000E18B228C914205D2401880B2814213D2E3
:1087A000E08311E0404390FBF1F0401880B2814239
:1087B00038BF0146E18307E02868606400F040F9B3
:1087C00000F03EF900F028F9606CD8B100F030F903
:1087D0008246606C006900F030F9C00708D4606C14
:1087E000006900F02AF90006400E00F0010000E0E8
:1087F0000120656CA98940185044B96A401A0128C3
:10880000DADB15B94FF0FF3000E00020608088F817
:1088100034900AE0A4F8389007E02868206400F05B
:108820000FF900F00DF900F0F7F8206CF0B100F04E
:10883000FFF88246206C006900F0FFF8C00708D4FA
:10884000206C006900F0F9F80006400E00F001000D
:1088500000E00120256CB96AA1EB0A02AB89D21AAB
:10886000101A03D4606A081A0128D6DBA068F0B198
:10887000E168BA6A891A1AD5B4F91010924A1268D6
:10888000101A00B2A0EBE1004118218202B2002AC6
:1088900048BF4042B4F912208018A0EBA2006082C9
:1088A00009B200B200EBE100A082C4F80890706940
:1088B0007A6A3B8B002B00F0A580811A4C1E27D4CE
:1088C000CB1A5B1C012B23DAB868044642898A4222
:1088D0000EDA0089401A04E0891A2081A4F80A906F
:1088E000246862898A42F7DB494209B2204601E0E6
:1088F000494209B200F0B3F96068F8607069398ADA
:10890000091A7A6A5118398278627969486004E0F4
:10891000101A02D5B07C00F085F87069796A0A1ADD
:108920006ED4338BD21A521C012A69DA884267D17D
:108930004FF0010900F080F8C00706D400F07CF881
:108940000006400E00F0010000E00120398A4018C6
:108950003883318B80B281422ED200F06DF8C0078F
:108960000ED500F069F8044600F066F84FF6C071C5
:10897000214000F03E00084300F0AAF879698881A0
:10898000308B388200F058F8800702D5388A401EB4
:108990003882398AB86800F03BF900F04DF8C0071A
:1089A00006D400F049F80006400E00F0010000E097
:1089B0000120398A40183883388B796A41187161EF
:1089C000318B081A3083404600F012FFB8680189E5
:1089D00011B1F8620020B86000F02EF8C00703D58E
:1089E000787840F020007870B07CC10704D500F0A2
:1089F000FE0000F017F80CE040F00100B07408E051
:108A0000B07CF6E7101AFBD4318B401A401C0128C9
:108A1000F6DA4846BDE8F087A18F081AA0872846F5
:108A200001F02AB840F00200B074404600F010BCDB
:108A30000069406800F05EB87869808900F04DB840
:108A4000686800F05CB970B504461B4EF06900F22E
:108A50001405FFF7F2FF000B06282CD3F069FFF78F
:108A6000ECFF000B401F8004000C002101E0491CBA
:108A700089B281421FDA4A194B5DE3B1022B01D062
:108A8000F5D313E05378042B15D10B1D984212DB5C
:108A90009378D27842EA032240F2B5539A4200D248
:108AA0000AB940F2B4522287091DE1E75378002B3E
:108AB00018BF5918DCD170BDFCD300204C00002039
:108AC00050000020480000204000002054000020FA
:108AD000010A41EA002080B27047F9E700F47F41C3
:108AE000090241EA0061020A02F47F42114341EAAD
:108AF00010607047F2E7F8B50D461746002628B11A
:108B0000022806D003D3032805D00BE01426143620
:108B1000B6B20E36B6B2002F4ED0022F67D066D353
:108B2000032F01D00020F2BD082001F0CFF804008F
:108B3000F8D0032020730020206030191030C01CB2
:108B40008008800060602581284640F2DC51F21CDC
:108B500022F00302891A884206DB40F2DC51F21C43
:108B60004FF6FC731A408D1A65810121E18126467A
:108B70006189451A15E003210173002141730160E9
:108B80003060058140F2DC52A9B2914288BF1146A3
:108B9000418100F1100141600121C18141896D1ABB
:108BA0000646012D2EDB082001F090F80028E2D1C6
:108BB000204600F084F8B5E706F113004FF6FC718B
:108BC0000840E91C4FF6FC721140081880B201F011
:108BD00045F90400A6D030191030C01C8008800070
:108BE0006060258165810020206020730AE00720F5
:108BF00001F06CF8040095D000206060258165814B
:108C0000206027730120E081002060732046F2BDC0
:108C100038B504460D46208985421FD2281A05E042
:108C20006D1AADB221894118218124686189A94258
:108C3000F6DB207B48B98D4207D06068001B2918FD
:108C400089B2204601F0B9F8044665816089208127
:108C5000206808B100F033F80020206031BD30B545
:108C600000292AD0002828D04A42002905D5448965
:108C700093B29C4202D2012030BD0B46047B456872
:108C80000CB1032C07D15219426000F110039A4233
:108C90000DD24560EFE7022C01D0012CEBD1002969
:108CA000E9D544899BB29C42E5D35219426042897E
:108CB0008A184281028989180181002030BD00B9DB
:108CC000704738B50024C189491EC18189B2A1B954
:108CD0000568017B032904D10146082001F004F84E
:108CE00008E0012901D0022902D101460720F5E759
:108CF00001F02FF8641C2800E5D1E0B232BD00215C
:108D000001E0491C00680028FBD1C8B2704710B1CF
:108D1000C189491CC181704700B9704710B561B164
:108D200003E004891219028118460A890368002B9E
:108D3000F7D10389D2180281016010BD10B50C462D
:108D4000FFF7EAFF2046BDE81040E0E72DE9F041DB
:108D500004460D460026002724B11DB1208929892B
:108D6000884202D26FF0090033E0688961898A1B6A
:108D7000C31B9A42ACBFC01B881B1FFA80F8424637
:108D8000686839186068301801F0B8F84644B6B21F
:108D90004744BFB26089864204BF002624686889C0
:108DA0008742A4BF00272D6845B168892989884278
:108DB00004D1286810B16FF008000AE034B160896E
:108DC0002189884202D120680028F4D1002DCCD11D
:108DD0000020BDE8F0812DE9F043044688461546A1
:108DE00000262CB3B8F1000F22D0B14613E0C01A10
:108DF00087B2BD42B8BF2F463A466068191809EBE2
:108E0000080001F07BF8BE19B6B2B9441FFA89F91F
:108E1000ED1B00232468ADB2002D18BF002C07D035
:108E200060899BB2002BE2D08342E0D31B1AF1E7AA
:108E30003046BDE8F0832DE9F04104460D46164664
:108E4000002714B90020BDE8F081002DFAD0208958
:108E5000904238BF6FF00900F5D3B6B2002EF1D0C2
:108E6000B04660894045B8BF80464246791960687F
:108E700001F044F8A6EB08064744BFB22468ECE7CB
:108E800000680246D34301D0002A01D10120704777
:108E900091F82A309B0701D4002070474B689A4212
:108EA000FAD0091D496808400B409842F4D1C843E4
:108EB00000EA02018142EFD1E8E700000000000073
:108EC000F8B5044615461F464E68208BFFF700FE96
:108ED0003080208CFFF7FCFD70807760606AFFF7C0
:108EE000FDFDB060B089FFF7F8FD4FF6C071084096
:108EF00040F01000FFF7ECFDB081608DFFF7E8FD5A
:108F0000F08100207082B089FFF7E7FD691005EB62
:108F1000917100F094F9B08100203082606A618D17
:108F20000818E0623046F2BD00B583B0002201921D
:108F3000012200920B460022002100F001F80EBD34
:108F40002DE9FF4F83B05AB99DF8440028B9032199
:108F50000B4202D16FF0090089E004980028F9D192
:108F6000039800F11804B0F86E00904204D2A07A81
:108F700040F08000A07278E09046049801909DF83F
:108F80004400C0074CBF042000209DF8441089070E
:108F90004CBF0C2100210818C0B20090D4F85090AA
:108FA000039800F26E000290B0F802B0BBF10C0F13
:108FB000DDD200260027208C0099411A4145BDBF13
:108FC0000099401A1FFA80FAC246042000F07EFE83
:108FD0000546002D41D0002028606860002E0CBF9F
:108FE0002E463D602F469DF84000C0071AD500224E
:108FF000009800EB0A0189B20020FFF77CFD686051
:1090000058B3FFF77CFE8344049838B15246019967
:1090100000986B685B68C01800F070FF6868406873
:10902000A86030E000220099C9B20020FFF763FD7C
:10903000686090B1FFF763FE8344B8F1010F22DB53
:1090400001221FFA8AF10320FFF755FD010011D11B
:109050006868FFF734FE00206860A07A40F0800066
:10906000A07216B1304600F0FAFC4FF0FF3007B0A6
:10907000BDE8F08F0BF1010B019848600198A860E2
:109080006868FFF749FE1FFA8BFBBBF10D0FE4D2B6
:10909000A5F80CA014216868FFF7E1FD0028DCD1D9
:1090A0006868406828610398008BFFF711FD296903
:1090B00008802089FFF70CFD296948804846FFF7A2
:1090C0000DFD29694860002048828889FFF705FD69
:1090D0004FF6C07108409DF818100843FFF7F8FCE0
:1090E000296988819DF84400A8738889FFF7F5FCF9
:1090F00000994A1001EB927100F0A1F8296988816A
:10910000A8EB0A001FFA80F8D1440198504401905E
:10911000002E3FF450AFB8F1010FBFF64CAF0398EB
:10912000476F002F50D000E0074638680028FBD179
:10913000002F49D000F079F9C00706D400F075F986
:109140000006400E00F0010000E00120B98940183F
:109150003DD000F06AF90321084238D19DF818008B
:10916000084234D1208CB989B289511888422EDB4B
:10917000B87BB17B88422AD100981430414209B2B1
:109180007068FFF76CFD002889D17068418939B992
:109190000168716000210160ABF1010BFFF78FFDE9
:1091A00071687868FFF7B8FDB889B1890818B88187
:1091B00031683960B54204BF3D461FFA80FA314636
:1091C000042000F091FD0DE00398466700E03E604A
:1091D0009DF818000321084204D0BDF81400401C7B
:1091E000ADF814009DF81800C00703D5A07A40F030
:1091F0002000A072206DBDF8141008182065039897
:10920000B0F86E00BDF81410401A0399A1F86E0072
:109210000298A0F802B085B1BAF1000F0DD028690C
:1092200058B19DF84010890707D400F0FFF840F0CE
:109230000800FFF74DFC29698881002017E7891095
:10924000491D00F03F0040EA013080B2FFF740BC0A
:109250002DE9F04F83B00446A0480068A04245D0F5
:1092600004F24C05E888B5F81090814528BF814686
:10927000AF6AD5F82C80B8F1000F05D000E0804629
:10928000D8F800000028FAD104F20A06307E8007E0
:1092900040F1A98047B100F027F9E16C401AB98983
:1092A0000818814580F0A08000F06EF9070008BF23
:1092B0006FF0010000F0B780307E00F0FC003076E7
:1092C000E868FFF70BFC0346002239462046FFF70B
:1092D000F7FD06200190A07A00907378221D2146A8
:1092E000384600F073FF3846FFF7E9FC9AE000F0DB
:1092F0009CF8E86A68B1307E41060AD4A96A29B1AF
:109300000A6832B98989F28D914202D2A0210842BD
:1093100073D03868A862B07902280BD000F085F8C5
:1093200040F01000FFF7D4FB39698881307E00F0EF
:10933000FC0030762146384600F07BF800F0D4F887
:10934000824600F072F8C00706D400F06EF80006FE
:10935000400E00F0010000E00120B989401850449F
:10936000E968091A48BFE86000F05FF8C00706D452
:1093700000F05BF80006400E00F0010000E0012064
:10938000B989401801282ADB00203860E86A10B942
:10939000EF62B84626E000F0A7F88246D8F8100041
:1093A00000F0A3F8BAEB000016D504F2780A01E049
:1093B000DAF800A0DAF8000040B1006900F095F892
:1093C000834600F091F8BBEB0000F1D4DAF800001E
:1093D0003860CAF8007005E0C8F80070D9E7384670
:1093E00000F04AFBAF6ACFB100F07EF8E16C401AA2
:1093F000B98908188145BFF47AAF94F89C0068B920
:1094000000F072F8298AE26C801ABA891018814239
:1094100004D20020E864012084F89C00307E00F033
:109420007F0030760020BDE8FE8F38698089FFF725
:1094300054BB7CB504460D46686AFFF74FFB2169B3
:109440008860688DFFF744FB2169C881686A698D6F
:109450000818E862206900F21406A07BC00703D553
:109460001F48FFF73BFB30600DB1286840B9281D4D
:1094700000F07CFD88B3011D0CBF0020406828600F
:10948000B5F936004FF0FF31884204BF0020E8866E
:10949000E86B30B913480068E863206900F025F8EC
:1094A0002864606821694268891A89B24289521A1F
:1094B000428160680289511A0181606821694160B6
:1094C00020690021018206200190A87A0090EB7AA1
:1094D0002A1D2946606800F079FE73BD2CD4002057
:1094E000B40504024000002038694068FFF702BB61
:1094F0002DE9F04F83B082468B46904699460C9DED
:109500000D9C00F041F80646002E3BD07768A8B2CB
:10951000FFF7DEFA3880A0B2FFF7DAFA788050461B
:10952000FFF7DCFA78605846FFF7D8FAB860B889D8
:10953000FFF7D3FA4FF6C071084040F01400FFF770
:10954000C7FAB88140F66830FFF7C2FAF881002008
:109550007882B889FFF7C1FA00F03F0040F4A040DC
:10956000FFF7B6FAB881002038820620019000206B
:109570000090FF234A464146304600F027FE304621
:10958000FFF79DFBBDE8F78F002214210120FFF7B4
:10959000B2BA00F23C01CA6B02B9704780B500E074
:1095A0001A461368002BFBD18B6B1360CA6B8A635E
:1095B0000022CA638A7B521C8A730021C163FFF7B1
:1095C00047FE01BD2DE9F041044604F23C05EE6B77
:1095D000E6B13068E86304F2740700E03F68386879
:1095E00048B10069FFF781FF80463069FFF77DFFD2
:1095F000B8EB0000F2D4386830603E60A87B401CB5
:10960000A8730020E0632046FFF722FEBDE8F0814A
:1096100030B583B00446FFF7B7FF05000BD0A06D4F
:10962000401EFFF75BFA034600F021F800F023F834
:109630002846FFF744FB37BD7CB50446A66F06B944
:10964000666F9EB1002215210120FFF754FA050034
:109650000CD03069436800F00AF86868B16809788E
:10966000017500F008F82846FFF729FB73BD0022BA
:109670002946204624E40620019000200090E37A49
:10968000221D2146284600F0A1BD10B450F8041B4D
:1096900081B102681218001D50F8043BDC0744BF7A
:1096A000A9F10104E31852F8044B43F8044B091FD5
:1096B000F9D1EBE710BC704780B500F0ACF9DFF8EA
:1096C00078050178491C0170C80748BF00F0A4F86C
:1096D00001BD000038B50446DFF86005217C07298C
:1096E0003BD8DFE801F004131B23233A3A3200256C
:1096F0008168A14204BFC968816001D000F08AFA84
:10970000E5602146022000F0EFFA1CE0002521462A
:109710000C3000F05AFA21460320F4E700252146D8
:10972000103000F052FA21460220ECE701212046D9
:10973000FFF7FAFB050001D1052020741CB115B913
:109740002046FFF785FD284632BD01212046FFF760
:10975000EBFB0500F2D10920EFE70025F3E72DE947
:10976000F04F85B004460D46DFF8D004217C0A296D
:1097700006D12146143000F028FA00F035F830E028
:10978000D4F85880D4F82490002C0CBF0021216814
:109790000291211D0CBF002161680391268B278C4B
:1097A000D4F890A0D4F814B02146103000F00DFA8F
:1097B000A06F08B100F053F9606F08B100F04FF9E5
:1097C00000F012F8504618B16FF004015846D04727
:1097D0003DB10197009603AB02AA49464046FFF708
:1097E00087FE05B0BDE8F08F2146022000F07CBA6C
:1097F00030B5028D436AD118C46A091B058F4D1B11
:1098000002D44285084630BD191B0129ACBF002196
:10981000E11A4185002030BD2DE9F84FDFF81C44E6
:109820006068401C6060002526694FF0320B40F2F2
:1098300091180FF23C4940F6611A0AE0D6F89020E0
:10984000100003D06FF004017069904700F0DEF85B
:109850003E46002E00F0C080002796F84A10327C69
:10986000022A03D1062901D101274DE00C29FBD0A2
:1098700096F89C00B0B1D6F89810491CC6F898101C
:109880000FF2FC32821812F8012C91423CD3C6F838
:10989000987007283CBF401C86F89C003046FFF7B4
:1098A000CBFE31E0B6F9360000285CBF401CF086E4
:1098B000B06F48B3B6F93600B6F94830984223DBAA
:1098C000022A0AD0B6F94400B6F9462002EBE000BD
:1098D00011F909108840A6F848000020F786B6F86C
:1098E0005200B6F85C10884288BF0846C003318F2A
:1098F000000C884238BF4800A6F85400308FA6F804
:1099000052003046FFF745FE307C062805D16168DD
:10991000326B891A414528BF7F1C317A090724D54B
:10992000042801D0072820D16068316B401AD6F88E
:109930009410C34A5218B2FBFBF2824204D20121B6
:109940003046FFF70CFF10E096F89D20BD4B03FB5F
:109950000211B1FBFBF1814207D23046FFF758FEFE
:1099600096F89D00401C86F89D00317C781C0329E8
:1099700004D16168326B891A414505E0092905D196
:109980006168326B891A514528BF0746F8B240B169
:10999000304600F002F9F068002D14BFE860206145
:1099A0004CE796F83400401C86F8340096F83510E1
:1099B000C0B288420DD3002086F83400D6F88C203F
:1099C000100003D031467069904710B93046FFF758
:1099D0003FFC3546F6683CE70025666902E000F08A
:1099E00015F83E4686B16068316B401A504508D381
:1099F000304600F0D2F8F068002D14BFE8606061D6
:109A0000EDE73546F668EDE7BDE8F18FF7683146DA
:109A1000022000F069B970B5884804690DE0FFF7CD
:109A20004EF900202867A87DC10705D500F0ECF8A5
:109A3000A87D00F0FC00A875E4687CB104F20C0578
:109A4000286F0028EFD0AE6F3100E8D00023024627
:109A50002146A868B0470028E5D1E2E770BD38B5D7
:109A60000024002805E0056800F006F80419E4B2B7
:109A70002800F8D1204632BD38B50446002544B14F
:109A8000606810B1FFF71BF905462146042000F07D
:109A90002BF9284632BD80B522B11046FFF70FF9E9
:109AA000002002BD002BFBD10846BDE8024011E6B4
:109AB000F8B50546022000F009F906005F4C35D1E3
:109AC00000210020626907E06368166B9B1B8B42D4
:109AD00024BF19461046D268002AF5D110B10121E1
:109AE000FFF73DFE022000F0F1F806001ED17F21B5
:109AF0000022002023690FE05E7CB5420BD3B14207
:109B000009D36768D3F830C0A7EB0C07974202D39C
:109B10003A4618463146DB68002BEDD110B10121E1
:109B2000FFF71DFE022000F0D1F806469EB3A021EB
:109B3000304600F065FB06F20A004021C17106F2D2
:109B4000300540F66831E9870022A6F87020C1830D
:109B50000184B272FF2141704FF4067028813C20CD
:109B60002883AA82E8824FF0FF30E88001206884D1
:109B700000F05BF86863A862E861A863606830631E
:109B80000020287106F270002F4941612F4941627F
:109B9000002086F89D003046F2BD10B50446207CBA
:109BA00090B10A2810D001280ED0E06F18B1FFF74D
:109BB00086F80020E067606FFFF751FFA06FFFF7A6
:109BC0004EFF00206067A06710BD38B50C460168E5
:109BD000A14204BFC968016002D0184800F01AF819
:109BE0000020E0602046FFF7D8FF04F20C0528793A
:109BF0000A2806D0012804D0A87DC10701D500F0AD
:109C000003F80020287131BD40F00200A8752046FD
:109C1000FFF71EBB8161826932B1D1680029F9D09A
:109C2000A142F7D1E068D06070470449C8694A682A
:109C30001018C86170470000F5D400203C000020D7
:109C4000B84C0A00F8240100979A000800DD6D0066
:109C500010B50446084600F089F930B1008D20B1F6
:109C6000283880B2844288BF0446204610BD0000D8
:109C7000010203040506070707070707070000009E
:109C800003060C183060780070B51B4800F1240101
:109C9000C91C8908890000220FF260030FF27004CA
:109CA000002540F8225008E050F822600E6040F88D
:109CB000221033F8126071186D1C34F81260ADB2C6
:109CC000B542F1D3521C092AEADB70BD092801D341
:109CD00000207047084A52F8201000291CBF0B686A
:109CE00042F820300846704729B1034A52F8203024
:109CF0000B6042F820107047B05000201C0020007C
:109D0000A00020001400200008001000EC05000056
:109D1000040006000A0006000C0005001E000A00F0
:109D20000A00000010B5744800F10C01C91C890834
:109D3000890001604FF4A0420A8000234B800B7120
:109D400053184360436801241C711A805A80816053
:109D500010BD00B9704730B567490A6890422BD3EF
:109D60004C68A04228D20838002303718B689842BF
:109D700038BF886003889B1898420DD01D795DB963
:109D8000A34209D08C689C4208BF88601C8804806C
:109D90001B889B18841A5C8043889B1883420BD0D5
:109DA0001C794CB98C68844208BF8B60018819808B
:109DB00000888018991A418030BD2DE9F041C91CF6
:109DC0004FF6FC7202EA01030C2B08D20C234A491D
:109DD0000A68904208D34D68A84207D304E045F2D0
:109DE00001018B42F3D30020BDE8F081A0F108040B
:109DF000A51A2688771B083F1FFA87FE9E45F2DBCF
:109E00007345F1D0B718D1F808C05E19083697F835
:109E10000480B8F1000F14D13B88B6B206EB020EF5
:109E2000BC4508BFC1F808E07746002139713B8086
:109E30007D8026803988B1F5A04FD5D089184E8015
:109E4000D2E714339E45CFD3B6B2B718674538BFB3
:109E50008F600021397121883980E9E7F0B5002849
:109E600001D10020F0BDC01C4FF6FC7108400C2849
:109E700038BF0C2003D345F201018842F1D21E49BC
:109E80008A680B68D41AA4B2064600E0E45AC0F50A
:109E9000A045AC42E5DAE5182F79002FF6D12F88DE
:109EA0003F1B083FB742F1D31436B74212D3001913
:109EB000083080B2C618002737712F883780748029
:109EC000288001242C713488B4F5A04F04D0E41804
:109ED000608001E001202871954208D101E01088DE
:109EE000C218107900281CBF48688242F7D18A60E6
:109EF00005F10800F0BD0000900000204AB38B0778
:109F000007D0521E11F8013B00F8013B21D08B070E
:109F1000F7D183071ED1103A07D330B4B1E8381017
:109F2000103AA0E83810F9D230BC530724BFB1E88A
:109F30000810A0E8081044BF51F8043B40F8043B67
:109F4000D20724BF31F8022B20F8022B44BF0B7834
:109F500003707047083A07D3B1E80810083A40F890
:109F6000043B40F804CBF7D25307E4E738B5044686
:109F70009348056800E02D686DB1284600F0D4F9DB
:109F80000028F8D0A868216801406A681040814222
:109F9000F1D1284632BD8B4C2068002803D000F058
:109FA000C3F9002801D1002032BD206832BD2DE95F
:109FB000F8430446884665682888FEF78EFD000B46
:109FC000042804D02046FEF77AFE002095E0288879
:109FD000FEF783FD07466888FEF77FFD6189C7F3BA
:109FE0000322B1EB820FEDD321898142EAD30146EE
:109FF0002046FEF70DFE01264746DFF8C49138469D
:10A0000000F092F960B1381D0AD0786840B1296932
:10A01000814210D0394605F11000FEF731FF50B9EA
:10A02000002E1ABF0026D9F800703F68474508BFC8
:10A030003F68002FE3D1414605F10C00FEF720FFF9
:10A040000028BFD14FF07040FEF754FD06464FF098
:10A050006040FEF74FFDE96831408142B2D0002FE9
:10A06000B0D043F6FF70FEF733FDE988014205D01A
:10A07000204600F044FA0400A7D065684F4FC7F8A7
:10A0800000807D604146204600F09AFB90BB288905
:10A09000FEF723FDC0B201280DD0062806D01128F6
:10A0A00041460DD1204600F0BBFB23E0414620464F
:10A0B000FDF7A6FF1EE04146204600F02AFD19E00C
:10A0C00005F11000FEF7DCFE88B94FF07040FEF796
:10A0D00011FD296900EA01064FF06040FEF70AFD14
:10A0E000864204D065600221204600F09DFD204696
:10A0F000FEF7E5FD002038607860BDE8F2832DE9C9
:10A10000F84F06468A4690469B460A9CDDF82C90FE
:10A110000C9DB8F1000F3CD01421FEF7A0FD10B14A
:10A120006FF0010048E077683889FEF7D6FCC0B2CE
:10A1300040EA0B20FEF7CCFC3881FEF7CEFC000A8B
:10A1400049EA0020FEF7C4FC3881D8F800003861E5
:10A1500044F48A40FEF7BCFC38803089FEF7B8FC36
:10A1600078800020F880184C2088FEF7B1FCB88079
:10A170002088401C2080BAF1000F02D0DAF80000DD
:10A1800018B9281D0CBF00206868F860002078818D
:10A1900002E0706800F11008288D40B131898842D2
:10A1A00005D242462946304600F073FA04E04246A2
:10A1B000314628466B699847BDE8F28FB8D4002035
:10A1C000B0D40020B4D40020ECD400202DE9FE430C
:10A1D00006460F46904699460A9D0B9C4046FFF75F
:10A1E000C5FE10B96FF0030008E0029001940095DD
:10A1F0004B46424639463046FFF781FFBDE8FE83B5
:10A20000002200F051BD50F8041B61B150F8042B3E
:10A21000D30744BFA9F101039A18002342F8043B75
:10A22000091FFAD1EFE77047F8B504460698079D75
:10A23000089E00276760A760E76084F82A70E061E5
:10A240002E4F387884F82D00401C38702661204647
:10A2500000F00BF82046A847002801D00020F2BDEE
:10A26000786820607C602046F2BD70B504461546D3
:10A270001E4600F009F82946204600F037F831461E
:10A280002046BDE870402DE070B504460D462868B4
:10A290006168884220D01A48006800E0304640B12A
:10A2A000C66801686268914204BF0121FFF757FA4E
:10A2B000F4E71448006801E00160C06800280BD092
:10A2C000FBD001680029F8D062689142F5D1002DD9
:10A2D0000CBF00212968EFE7002D0CBF0020286883
:10A2E000606070BD01B10968C160704701B1096863
:10A2F000816070470149886070470000ACD400203D
:10A300004C0000204800002090F82A10CA0700D511
:10A31000704780B541F0010180F82A10890644BFDA
:10A32000011D00F0B9FF01BD90F82A0000F0010006
:10A33000704700002DE9F04105460E4600246F6885
:10A340007868818891B900686860142205F1080175
:10A350007868FFF7D3FD0121384600F068FC3846E5
:10A36000FEF7CDFC04463846FEF7A9FC6F6809E00D
:10A37000B846786807684046FEF7C1FC04194046B5
:10A38000FEF79DFC002FF3D13146284600F03CF843
:10A39000DFF824040188091B01802046BDE8F08114
:10A3A000F8B504460D460026002000210746DFF8D8
:10A3B00008245268002A09E0C37F92F81FC0634551
:10A3C00000D31046136803B111461A0012D0536926
:10A3D000D4F80CC0634509D19369D4F810C0634523
:10A3E00004D19389B4F804C06345EBD07F1C0028E6
:10A3F000E2D1E6E710B1FFF79DFF8619AE4201DA20
:10A40000022FD1DA3046F2BD10B50268DFF8A8336A
:10A410005C6884420CBF5A600A6001460520FFF761
:10A4200063FC10BD2DE9F04704460D4600260127C8
:10A43000D5F804A0BAF80200FEF74FFB8046BAF840
:10A440000000FEF74AFB8146BAF80600FEF745FB1E
:10A45000C1006868066081804144C9F30322A1EB12
:10A460008201C18061680CE03CD0BCF806108A42D1
:10A4700038D31EB1F188994218BF0027DCF80010CC
:10A48000664691B1D1F804C0BCF8043082889A4283
:10A49000EAD201603EB1F1888A4223D3C1888B425F
:10A4A00020D3356009E0656007E0002EFBD0356001
:10A4B000F1888288914218BF0027A17FC9071BD568
:10A4C00077B161684968898831B1002708E0486838
:10A4D000F18882889142F8D1064601680029F6D1B8
:10A4E00038460AE02846FEF70AFCB3490A88101AE3
:10A4F00008802846FEF7E3FB0020BDE8F0872DE941
:10A50000F84F814600200090D9F804502888FEF7C3
:10A51000E4FAC0F303208000142854D1E888FEF741
:10A52000DCFAC600B6B26888FEF7D7FA0446288877
:10A53000FEF7D3FAC0F30320A4EB80001FFA80FAE1
:10A540004846FEF7DCFB80469B4C208840440B28A5
:10A5500009DB41462846FFF723FF002833D0208837
:10A5600040440B282FDA67680DE07869E968884273
:10A5700007D1B8692969884203D1B889A988884276
:10A5800027D000973F68002FEFD10520FFF79EFBF3
:10A59000074657B941462846FFF702FF404510DB02
:10A5A0000520FFF793FB07465FB120213846FFF7F0
:10A5B00027FE0320F87760683860676000F063F872
:10A5C00000E00027AFB94846FEF779FB0020BDE860
:10A5D000F28F41F6FF7BE888FEF77FFA10EA0B0F57
:10A5E00007D1F889FEF779FA10EA0B0F01D000F0D5
:10A5F0004AF8208840442080E888FEF76EFA8004FC
:10A6000006D4B87F40F00100B8770AEB0600B883A3
:10A6100049463846FFF706FF0028D8D0B88B1430DB
:10A62000B883786841680E680D46142207F1080166
:10A630002846FFF763FCB88BFEF74AFA68800020D3
:10A64000E88068811421284600F08FFE6881D7F8E1
:10A6500004900AE075686FF013013046FEF7FFFAC8
:10A6600031464846FEF758FB2E68002EF2D100997D
:10A670003846FFF7C9FE4846FEF741FB2188081A15
:10A6800020804846A3E71422294607F10800FFF777
:10A6900035BC2DE9F74F84B00D8D4FF01408022220
:10A6A00000210220FEF727FA5FEA000902D14FF0ED
:10A6B000FF307DE0A9F80A50A9F808503F48840807
:10A6C000A400C9F804401422049841682046FFF70A
:10A6D00015FCE088FEF701FA4FEAC04B4FEADB4B6E
:10A6E00000F40050029004980089143886B2A5F155
:10A6F00014000190811000EB51704003000C009099
:10A7000010E04946FEF71AFB069A39460598436958
:10A7100098473846FEF7D3FA701B86B20098584423
:10A720001FFA80FB002E3FD00198B042ACBF01273A
:10A73000002702984FEACB4150EAD1401FFA80FA35
:10A74000002F03BF4AF4005A0098C50035461FFA8F
:10A7500088F3AAB204F114010498FEF73CFB80448C
:10A760005046FEF7B5F9E08005F1140080B2FEF71F
:10A77000AFF96080002060811421204600F0F5FDD3
:10A7800060812FB106F1140189B24846FEF740FA04
:10A79000002200210220FEF7AEF90746002FB0D1BB
:10A7A0004846FEF78CFA82E74846FEF788FA002012
:10A7B00007B0BDE8F08F0000C0D4002083CB00209C
:10A7C0002DE9F04780460025D8F80490B9F8080034
:10A7D000FEF783F95FFA80FA0024104E3768D7B18C
:10A7E000387C504513D1D7F814C0604678B109F1D0
:10A7F0000C0342463946B869E04740B14FF00008C3
:10A80000012524B1F868E0603068F86037603C46A4
:10A81000FF68002DE3D02846BDE8F087E0D4002093
:10A820002DE9F84304460E4665682888FEF755F979
:10A830002189C0F30320800008308142C0F290805B
:10A840002888FEF74AF9000A00F00F008000414214
:10A8500009B22046FEF703FA00284ED16768314658
:10A8600005F11000FEF70CFB81463888FEF735F93C
:10A8700080467888FEF731F9002300219D4A176849
:10A8800001E03B46FF689FB3B7F812C08445F8D19A
:10A89000B9F1000F05D16FB1D7F800C0BCF1000FBE
:10A8A00008D0D7F800C0D5F810E0F44502D0B9F1CF
:10A8B000000FE6D029B997F810C05FEA4C7C58BF6A
:10A8C0003946B7F814C0C445DBD117F1040C08D0E1
:10A8D000D7F804C0BCF1000F1CBFD5F80CE0F4455C
:10A8E000CFD15BB1F868D8601068F860176005E0F8
:10A8F0000F461FB970682969884231D16FF007018E
:10A900002046FEF7ACF958BB5FB1BE69300027D0D6
:10A91000CDF8008005F10C0322463946F869B047AE
:10A9200021E0B9F1000F1BD14FF07040FEF7E2F8C3
:10A9300006464FF06040FEF7DDF82969314081425C
:10A940000ED02888FEF7C9F8C0F30320800000F17C
:10A9500008012046FEF783F90321204600F064F940
:10A960002046FEF7ACF9BDE8F183838A021DF8B5F5
:10A9700004460D4616461F463046FFF7F7FA0028F4
:10A9800002D16FF00300F2BD00903B4632462946EB
:10A99000204600F001F8F2BD2DE9F04784B00446EE
:10A9A000884691469A460C9F608A50B900222146FB
:10A9B000204600F04DF806461EB1304604B0BDE812
:10A9C000F08708214046FEF74AF968B100220821C5
:10A9D0000120FEF790F8054615B94FF0FF30EDE77E
:10A9E0004146FEF7ABF900E045466E68608AFEF727
:10A9F0006FF830805046FEF76BF870800020F080D2
:10AA00000CB1206810B907F1040A0BE0796888429C
:10AA100007D045451CBF2846FEF751F96FF00800E6
:10AA2000CCE7A2462889FEF753F8B08002971120A0
:10AA30000190A07A0090E37A4A4651462846FFF7F3
:10AA40005EFB06464545B8D02846FEF738F9B4E720
:10AA500070B50023274C25682E4603E0B04208BF9E
:10AA60000123F668002EF9D101B1096801609AB995
:10AA70004FF4805200E0521C2E466EB147F6FF7133
:10AA800092B28A4205D0718A914218BFF668F4D119
:10AA9000F1E76FF00A0070BD4282002B04BFC56071
:10AAA0002060002070BD70B504460D461646608AD1
:10AAB00028B9002221462046FFF7CAFFA8B9002D79
:10AAC0000CBF002028686060A682207C40F0040053
:10AAD0002074084801680A4600E0D26812B1944226
:10AAE000FBD101E0E1600460002070BD8161C261C2
:10AAF00070470000E8D4002010B50120FFF7E6F809
:10AB0000040004D02021FFF77BFBFF20E0722046E9
:10AB100010BD2DE9F04784B0074688467E6830882E
:10AB2000FDF7DBFF000A00F00F004FEA8009C9F1D2
:10AB3000000421B200F075F8E0B93889042819D36F
:10AB400078680078082815D101254FF07040FDF78E
:10AB5000D1FF316900EA010A4FF06040FDF7CAFFFA
:10AB6000824508BF0025414606F11000FEF788F92E
:10AB700000B92DB9384604B0BDE8F047FEF79FB8DC
:10AB800038890828F6D3384600F0F5FB0028F1D1C3
:10AB9000222100F046F8E0B100F042F80028E9D1A7
:10ABA000002239890220FDF7A6FF0546002DE1D0DD
:10ABB0003946FEF7CBF80028DCD16E6821B2284672
:10ABC000FEF74DF80028D5D13846FEF778F82F4625
:10ABD00005E06FF0210100F024F80028CAD1786860
:10ABE000F1683269F2603161002101704180308981
:10ABF000FDF773FF40F47F40FDF76AFF30810020CE
:10AC0000708100F00DF80028B4D1CDF8088000F074
:10AC100040F8002206F10C013846FFF770FAA9E768
:10AC200049463846FEF71BB80A46032101E00A46AA
:10AC30000B212DE9F04383B0074688469146002258
:10AC400024210120FDF757FF040020D07D686668AD
:10AC500086F8008086F801900020B080F0801C22E9
:10AC6000796860680830FFF749F9002070806189D1
:10AC7000304600F07AFB708000F00BF805F10C0212
:10AC800000212046FFF7A2FA2046FEF718F8BDE89B
:10AC9000F7830120019000200090FF2370470000FF
:10ACA00062F30F2262F31F4200B5130096469446EA
:10ACB000103928BFA0E80C50FAD85FEA417C28BFC1
:10ACC0000CC048BF40F8042BC90728BF20F8022B4E
:10ACD00048BF00F8012B00BD38B5044608E0254602
:10ACE00024686868FDF7EBFF29460620FEF7FCFFA5
:10ACF000002CF4D131BDF8B50024DFF8EC54142059
:10AD000000FB04F67719F87B401CF873B87B022827
:10AD100002D1F97BF02904D201280AD1F87B02285C
:10AD200007D3705918B1FFF7D7FF002070510020EA
:10AD3000B873641C0A2CE2DBF1BD2DE9F84F044620
:10AD40000A220A23964600208DF802009046ADF8AC
:10AD500000004FF01409DFF890A474B1DFF88C0400
:10AD6000007809FB00A7BD7B022D06D125687F680E
:10AD7000BD4202D140B2BDE8F28F002702E0BEF131
:10AD80000A0F06D109FB07A0807B10B94FFA87FE96
:10AD900037E009FB07FC0CEB0A05AE7B78B2012E0D
:10ADA0001FD14CB12668D5F804B05E4504D1DFF858
:10ADB0003C04077078B2DEE75CF80A60002EED7B99
:10ADC00007D09DF80060B5421BD380468DF8005037
:10ADD00017E09DF80260B54213D302468DF8025089
:10ADE0000FE0022E0DD124B1D4F800C06E68B44536
:10ADF000DDD0ED7B9DF80160B54224BF03468DF8A0
:10AE000001507F1C0A2FBADBBEF10A0F07D101F0F7
:10AE10000300012805D10A2B0DDADFB21DE08807F7
:10AE200002D54FF0FF30A6E7BEF10A0FF3DA5FFA62
:10AE30008EFE774611E00A2AB8BFD7B20DDB404636
:10AE40000A28EEDA5FFA88F709FB07F555F80A00D9
:10AE5000FFF742FF002045F80A0009FB07A0002188
:10AE600081730CB1216841600021C1739FE7F8B57F
:10AE700004460D466E680620401EC15C815581194E
:10AE8000875C8F710128F7DA00F0D4F8B081294689
:10AE90002046A269BDE8F84010472DE9F04104467C
:10AEA0000E4690461F4666B1306850B100F037F844
:10AEB00038B900F01AF900F036F8316829408142BB
:10AEC00002D16FF0090028E039463046FFF735FF20
:10AED000002822D4142101FB00F6C34FF0190221EF
:10AEE000817304610621491E0A1811F80830137293
:10AEF0000129F8DA0021C1730BE00868F0514D68B0
:10AF00000620FEF7F1FE434600F0EAF82846FDF77A
:10AF1000D6FEF1590029F0D10020BDE8F08121468C
:10AF20003046FDF7ADBF05464FF06040FDF7E2BD8E
:10AF300000B9704710B549688268D1F81A301340DB
:10AF400044682240934204D100238A1D1A31FFF73E
:10AF5000A4FF10BD2DE9FC4104460D46904634B1D6
:10AF6000B8F80A002A2804D24046FDF7A8FEBDE83A
:10AF7000F381D8F80470FE890120FDF7A9FD86420F
:10AF8000F2D17E8A40F20460FDF7A2FD8642EBD149
:10AF90003E8A00F04FF88642E6D1BE8940F60600B0
:10AFA000FDF796FD8642DFD1042207F11C0100A8BF
:10AFB000FEF7A4FF042207F1260101A8FEF79EFF79
:10AFC000606808B9002603E001998142FAD10126A0
:10AFD000334607F1160200A92046FFF75EFFB88A44
:10AFE000FDF776FD0128BFD1002EBDD00220FDF770
:10AFF0006FFDB88207F1260007F11C010422FEF75D
:10B000007DFF0422211D07F11C00FEF777FF0620BB
:10B01000401EC1198A7D81F820208A7DC255425D7B
:10B020008A75425D8A710128F2DA41462046A2699A
:10B03000904799E74FF40060FDF74ABDF0B583B043
:10B0400004460D4616460E212846FDF708FE002848
:10B0500002D06FF00100FEBDFFF761FF20B10FF2DB
:10B06000B42300F03DF8FEBD00F03FF80746FFF7BF
:10B070005BFF316807EA010282421DD101208DF891
:10B08000000000208DF801005E208DF8020030687D
:10B09000FDF730FD000C00F07F008DF803003068F4
:10B0A000FDF728FD000A8DF804003068FDF722FD49
:10B0B0008DF8050000ABD4E7A0680140626810403D
:10B0C000814204D0E068002807D004F20C062A462A
:10B0D0003146204600F00DF8FEBD6FF00300FEBDC6
:10B0E00004F1210229462046C1E64FF07040FDF7E9
:10B0F00001BD2DE9F84F83460E4617460BF2210895
:10B100004FF0FF345946FFF70BFF50B9FFF7EDFF43
:10B11000FFF709FF316805EA0102824201D006B15A
:10B1200011B96FF009005BE001213046FFF705FE21
:10B13000002855D4142101FB00F9DFF8ACA009EB7D
:10B140000A05A87B10B90120A87302E0012800D0ED
:10B1500027B93146584600F09FF80446002F3ED0EC
:10B16000A87B022808D105F1080342463946584613
:10B17000FFF77DFE044632E0012830D13846017BDE
:10B1800001290CD0002201890320FDF7B4FC5FEAFD
:10B19000000B24D03946FDF7D9FD38B11CE000681A
:10B1A0000028ECD1BB465846FDF7B1FD0620FEF75E
:10B1B0008DFD88B100210160C0F804B059F80A1073
:10B1C00031B100E011460A68002AFBD1086001E0B5
:10B1D00049F80A00002402E05846FDF770FD2046B9
:10B1E000BDE8F28F0000000060D10020F2D4002002
:10B1F0002DE9F74F80469A46DDF830B00D9DDDF819
:10B2000038900F9C00222A210320FDF774FC06468B
:10B2100016B94FF0FF303DE07768A0B2FDF758FC5B
:10B22000B8820620401EC11910F80A208A75425DB6
:10B2300081F820200299415CC155C119019A825CB4
:10B240008A710128EEDA07F11C0059460422FEF744
:10B2500055FE07F1260049460422FEF74FFE012065
:10B26000FDF736FCF881FFF7E5FE388240F2046016
:10B27000FDF72EFC788240F60600FDF729FCB88128
:10B2800031464046D8F81820904704463046FDF72E
:10B2900016FD2046BDE8FE8F00B585B00122039261
:10B2A00002910FF278010191011D009100F121033B
:10B2B0000FF2600200F12101FFF79AFF05B000BD17
:10B2C00038B504460D4660688089FDF701FC4FF4EF
:10B2D0000061401A02D0801F0FD015E02146284699
:10B2E000FFF726FE6FF00D012046FDF7B8FC58B9B8
:10B2F00029462046FEF75BFE09E0224605F12101C2
:10B300002846FFF727FE02E02046FDF7D8FC002084
:10B3100032BD0000FFFFFFFFFFFF00000000000044
:10B320000000000010B5002207E010F8013B10F803
:10B33000014B54EA03239A18891E89B20229F4D2D8
:10B3400011B1007812EB00224FF6FF7101EA020002
:10B3500000EB1240020C12041CBF014001EB104034
:10B3600080B2BDE81040FDF7B3BB80B5FFF7DAFF50
:10B37000C04380B202BD70B505460026002412E02D
:10B3800069896868FFF7CEFF801981B201EB10462A
:10B39000A87AC00706D5C4F10104F0B2C6F30721AC
:10B3A00041EA00262D68002DEAD1E4B224B1F0B2C2
:10B3B000C6F3072141EA0026F04380B270BD0000C9
:10B3C000E0B54FF6FF70ADF804004FF46160ADF8E2
:10B3D00000000020ADF80600ADF8020000A94FF013
:10B3E000804000F0D5FA00F010F800F001FB00F00A
:10B3F0000CF800F014FB012200F007F800F0F0FA5E
:10B4000000F003F800F0E2FA07BD01214FF08040A0
:10B41000704700B583B00421042000F097FB102092
:10B4200000F0F2FB102000F015F80521042000F0D8
:10B430008DFB202000F0E8FB202000F00BF8072116
:10B44000042000F083FB802000F0DEFB802000F071
:10B4500001F807BD009000208DF8040008208DF849
:10B46000050001208DF8060000A800F08DBB2DE935
:10B47000FF414FF4964400944FF480654FF480569A
:10B48000DFF8B0733878022804BFADF80460ADF877
:10B49000085001D000F056F800F05AF8DFF8988311
:10B4A00000F04CF800F041F800F044F84FF416407A
:10B4B000009000200190ADF80800ADF80C000C20C1
:10B4C000ADF80A00DFF8748300F038F800F032F8C5
:10B4D00000943878022804BFADF80460ADF8085035
:10B4E00001D000F02FF800F033F8DFF8548300F0BB
:10B4F00025F800F01AF800F01DF8009438780228BA
:10B5000004BFADF80460ADF8085001D000F01AF89F
:10B5100000F01EF8CB4C00A9204600F07DFB012175
:10B52000204600F0B7FBBDE8FF81002280214046A5
:10B5300000F0BABB0121404600F0ACBB00A9404678
:10B5400000F06ABB0020ADF80400ADF808007047B9
:10B550000020ADF80600ADF80C000C20ADF80A0094
:10B56000704730B58BB0B84D284600F0A5FBB74802
:10B570000090B74800F026F84FF4405400F01CF853
:10B580004FF0007000F020FC0021284600F010FC75
:10B59000B04D284600F090FBAF480090AF4800F057
:10B5A00011F800F009F8AE4800F00EFC0021284622
:10B5B00000F0FEFB0BB030BD09940A9000A92846AC
:10B5C00000F0DBBB019010200290202003900020AF
:10B5D0000490802005900020069007900890704706
:10B5E00000B585B000F014FC01219E4800F0FFFC7E
:10B5F00001219D4800F0E9FC012144F27D0000F0AA
:10B60000EDFC00F089F900F06CF800F019FDFFF78F
:10B6100000FFFFF72CFFFFF7A4FFFFF7D1FE00A804
:10B6200000F080FC00986421B0FBF1F08F49B0F18C
:10B63000807F0AD28E4A0002000A401E5060F0202D
:10B64000087000209060072010602020087005B06E
:10B6500000BD00B5AFB0002000F08CFA062000F06D
:10B66000D8FC00F077FD00F0BFFF00F0C4FF012818
:10B67000FBD000A800F07BFE012000900020079086
:10B6800007A84FF40071C16000210161C1618162AE
:10B6900001634163816341664FF0007181664FF43D
:10B6A0000012026700228267C2670420289028A83F
:10B6B00041604FF4803181604FF48001C1604FF4EC
:10B6C000005101614FF480418161012100A800F027
:10B6D0004EFD684908600121674800F0ACFF2FB0BB
:10B6E00000BD2DE9F04782B0042000F002F9634C60
:10B6F00000F0FBF8062000F0FCF8614D00F0EEF8D9
:10B7000043F6201000F0F5F85E4E00F0CBF8012172
:10B710004FF0201000F0F7F90B20ADF8000000F01A
:10B72000B9F800F0DFF84FF48067ADF8007000F072
:10B73000B1F800F0B3F800F0B5F8082000F0B6F862
:10B7400000F0CCF84FF4F85000F0B0F8DFF8388192
:10B7500000F0BAF84FF48079ADF8009000F09AF854
:10B76000182000F0C0F8ADF80090102000F0B1F8FB
:10B770000121082000F0C7F92020ADF800001820B2
:10B7800000F09DF84020ADF8000000F087F800F0D0
:10B790009BF8ADF8007000F09BF84FF40069ADF82D
:10B7A000009000F07BF800F099F84FF48050ADF86D
:10B7B000000000F08DF80420ADF800008DF80300C3
:10B7C00000F082F84FF4007AADF800A0182000F0E5
:10B7D0005FF800F08AF8ADF8007000F083F81920E7
:10B7E000ADF80000102000F06AF8ADF800901020CD
:10B7F00000F04EF800F079F8ADF800A000F04EF837
:10B8000000F048F800F04EF84FF4005000F07AF8DD
:10B81000284600F007F9FF2000F074F81B4800F0FC
:10B8200001F9F02000F06EF8204600F0FBF8BDE8CA
:10B83000F3870000F4D40020004C0040005000408A
:10B8400000440040003801408000024004440040B1
:10B8500054D3002058040240044C0040F0D2002091
:10B860000000021001001A1803C0010023ED00E0DF
:10B8700010E000E0E4D40020400001000008014096
:10B8800000100140000C014000140140001801406C
:10B890008DF8030003208DF80200704704208DF816
:10B8A0000300704700A9304600F0BCB8ADF80000B6
:10B8B00003208DF8020004208DF8030070478DF8F6
:10B8C000030003208DF8020000A9404600F0AAB84A
:10B8D00018208DF8030003208DF8020000A92846E7
:10B8E00000F0A0B804208DF8030000A9204600F065
:10B8F00099B8ADF8000003208DF8020018208DF8EB
:10B9000003007047ADF8000004208DF80300032009
:10B910008DF8020000A9704780B500214FF000604B
:10B9200000F0FDFE4FF4A06000F0C8FE3D208DF851
:10B93000000002208DF80100002000F014F80A2019
:10B9400000F019F8172000F016F84FF4A06000F08E
:10B95000B5FE1C208DF8000000208DF801000220AB
:10B9600000F001F801BD8DF8020001208DF8030000
:10B9700000A800F0A8BE8DF8000000208DF801009E
:10B980008DF8020001208DF8030000A800F09BBE96
:10B9900010B5028802F08F0202800288CB884C88A2
:10B9A00023431A4302808A8882850A880285054BD0
:10B9B000984202D0044B984201D1097A01860121B4
:10B9C000818210BD002C0140003401400029018813
:10B9D00012BF41F0010140F2FE3211400180704778
:10B9E000002A828914BF114322EA01018181704734
:10B9F0000029018812BF41F0800140F27F321140DE
:10BA000001807047808C7047028A808908400A4212
:10BA100002D010B1012000E00020C0B27047C9433D
:10BA2000018270472DE9F041CB7803F00F02DB066D
:10BA300044BF8B781A430B8801240F25DEB21EB356
:10BA4000D0F800C0002604FA06F7BE460EEA030846
:10BA5000F04514D14FEA860E05FA0EF82CEA080CD0
:10BA600002FA0EFE4EEA0C0C91F803E0BEF1280F2C
:10BA700008BF476103D0BEF1480F08BF0761761CBD
:10BA8000082EE0D3C0F800C04FF48076B34226D32E
:10BA9000D0F804C0002606F1080704FA07F7BE46EE
:10BAA0000EEA0308F04515D14FEA860E05FA0EF8A6
:10BAB0002CEA080C02FA0EFE4EEA0C0C91F803E098
:10BAC000BEF1280F08BF476191F803E0BEF1480FAF
:10BAD00008BF0761761C082EDDD3C0F804C0BDE89E
:10BAE000F08180680140080018BF0120C0B2704793
:10BAF000C0680140080018BF0120C0B27047016152
:10BB000070474161704770B51C4A1468C0F3034523
:10BB100083B2460D3601B34000F44016B6F5401F1F
:10BB200006D124F07060146824F07064146009E099
:10BB3000C00243BF0320A84024EA000024EA030017
:10BB400040F0706001B11843106070BD30B501F075
:10BB50000302920089100A4B53F821400F259540AB
:10BB6000AC4343F8214053F821409040204343F830
:10BB7000210030BD03490860704700000400014007
:10BB800008000140DC00204230B50168CB43204969
:10BB900082792AB30A461468234013605368046804
:10BBA000A34353600379CC18236805682B432360B3
:10BBB00093680468A3439360D3680468A343D36085
:10BBC00043790568102B07D1916829439160D168AA
:10BBD00000680843D06030BDCC182068284303E0DB
:10BBE00000790C1820681840206030BD08490A68A8
:10BBF00002404969014203D0100002D0012000E058
:10BC00000020C0B270470000024908607047000081
:10BC1000000401401404014030B585B004460D46CF
:10BC2000208A4CF6FF710840E98808432082A089E9
:10BC30004EF6F3110840A988084329890843698909
:10BC40000843A081A08A4FF6FF410840A989084314
:10BC5000A08200A800F066F90D4884420CBF03984A
:10BC600002981921484329688900B0FBF1F064214A
:10BC7000B0FBF1F21201130901FB13000001323095
:10BC8000B0FBF1F000F00F001043208105B030BD93
:10BC9000003801400029818912BF41F400514DF65E
:10BCA000FF72114081817047002A828A14BF1143BC
:10BCB00022EA01018182704701684FF6FE7211404D
:10BCC00001600021016041608160C1604149424AD8
:10BCD000904204BF086840F00F004CD03F4A9042A9
:10BCE00004BF086840F0F00045D03D4A904204BFD0
:10BCF000086840F470603ED03A4A904204BF086839
:10BD000040F4704037D0384A904204BF086840F48D
:10BD1000702030D0354A904204BF086840F470006B
:10BD200029D0334A904204BF086840F0706022D0A6
:10BD30003049314A904204BF086840F00F001AD0E1
:10BD40002E4A904204BF086840F0F00013D02C4AFD
:10BD5000904204BF086840F470600CD0294A9042B9
:10BD600004BF086840F4704005D0274A904203D1D0
:10BD7000086840F47020086070470268234B1A403E
:10BD80008B681A430B6A1A430B691A434B691A43AF
:10BD90008B691A43CB691A434B6A1A438B6A1A435D
:10BDA0000260CA6842600A6882604968C160704780
:10BDB0000029016812BF41F001014FF6FE721140E7
:10BDC0000160704741607047C1004CBF094901499B
:10BDD0000860704704000240080002401C00024056
:10BDE0003000024044000240580002406C00024013
:10BDF0008000024004040240080402401C04024087
:10BE00003004024044040240580402400F80FFFF07
:10BE100082B03E48016841F00101016041683C4A3E
:10BE20001140416001683B4A11400160016821F402
:10BE300080210160416821F4FE014160016821F028
:10BE4000A05101604FF47F0181600021C162019126
:10BE50000091016841F480310160016801F4003112
:10BE600000910199491C0191009919B90199B1F505
:10BE7000A06FF2D10168490C01F001010091009915
:10BE8000012900D0FEE724490A6842F010020A6046
:10BE90000A68920892000A600A6842F002020A6088
:10BEA0004168416041684160416841F4806141609E
:10BEB000C16A1A4A1140C162C16A194A1143C1627A
:10BEC000016841F08061016001680901FCD54168A9
:10BED00021F47C114160416841F4E811416001683E
:10BEE00041F08071016001688901FCD541688908D1
:10BEF00089004160416841F002014160416801F000
:10BF00000C010829FAD102B070470000001002406D
:10BF10000000FFF0FFFFF6FE0020024000F0FEFFF1
:10BF20004406010070B53C490B683C4A03F00C0321
:10BF3000042B26D0082B18BF394A22D10B680C6875
:10BF400004F48034C3F383430D2B14BF9B1C0623DE
:10BF500014B9344A5A4314E08D6A8C6A04F00F0411
:10BF6000641CED030AD58D6A8E6AC5F303156D1C3A
:10BF7000B2FBF5F2C6F30325AD1C6A43B2FBF4F243
:10BF80005A4302600B68284A0468C3F303139B5C9E
:10BF900024FA03F343600B684468C3F302239B5CF9
:10BFA00024FA03F383600B684468C3F3C2239B5CE9
:10BFB00024FA03F3C3600968C368C1F381318918A7
:10BFC000097CB3FBF1F1016170BD184A00291168C9
:10BFD00014BF084321EA000010607047144A00298A
:10BFE000116814BF084321EA000010607047114A2D
:10BFF0000029116814BF084321EA0000106070474F
:10C000000D4A0029116814BF084321EA000010609E
:10C0100070470A49087070470410024040787D015B
:10C0200000127A0000093D00700000201410024048
:10C03000181002401C100240281002400710024055
:10C04000F8B5002500263D4F10213846FFF749FD81
:10C0500008B145F0010520213846FFF742FD10B137
:10C0600045F00205EDB240213846FFF73AFD10B128
:10C0700045F00405EDB2E4B2E8B284421CBF2C46A0
:10C080000026761CF6B2142EDED3E04300F0070043
:10C090002B490870F1BD38B52A4CE08801281CD125
:10C0A0000020E080607808B1401E6070264D4FF49B
:10C0B00080712846FFF71CFD00284FF48071284648
:10C0C00002D0FFF71EFD01E0FFF719FD2078A178EF
:10C0D000084304BF208900F037FB31BD10B5FFF7DE
:10C0E0007FFA00F099FDFFF7ABFF18480021C0F878
:10C0F0000B10174C09E01348C06800F0E0FE00F098
:10C10000A8FF00F05BFEFFF7C6FF20680028F2D111
:10C11000FFF79FFA20680028F5D000F09BFEF2E7B9
:10C120000848C1680A31C16082882AB1521E92B2A1
:10C1300012B964220121C180828070470008014049
:10C14000F4D400205C0000200010014060D40020E6
:10C15000E4D4002080B501214FF48040FFF750FF68
:10C1600000214FF48040BDE80440FFF749BFF0B51F
:10C1700087B004460D46002000900090DFF8CC64A4
:10C18000306920F01C0701A8FFF7CCFE0298DFF809
:10C19000C0140918DFF8BC24914238BF47F00807E3
:10C1A00008D3DFF8B4140818DFF8B014884238BF99
:10C1B00047F00C0737614FF4004200F0D5F808B99A
:10C1C0000020CCE0DFF8980400F06AFA206800282C
:10C1D00036D00098401C0090DFF8887400F0C1F859
:10C1E000400702D40098B842F3D30098B842E7D091
:10C1F000002000904FF4805200F0B6F80028DFD005
:10C200000098401C009000F0ACF8800602D4009822
:10C21000B842F5D30098B842D2D000200090102147
:10C2200000F0A0F841074CBF4FF4006100212162EB
:10C23000800702D50020606110E04FF48040FAE7EB
:10C24000206A6169490841EAD00292B200F08CF894
:10C250000028B5D06FF07F4000F022FA3068DFF898
:10C260000814084061680843A1680843E16808436E
:10C270002169084361690843A1690843E1690843EA
:10C28000216A0843616A0843A16A0843E16A0843D6
:10C29000216B0843616B08433060A06BE16B08437E
:10C2A000216C0843616C0843A16C0843E16C0843AE
:10C2B000216D0843616D08437060A06DB060E06D52
:10C2C000F060B0694FF641710840216E40EA0140CC
:10C2D000616E0843A16E0843E16E0843216F084375
:10C2E000616F0843B061A06FE16F0843F061DFF850
:10C2F0007C038169DFF878231140D4F88020114352
:10C30000D4F884201143D4F888201143D4F88C2029
:10C310001143D4F890201143D4F894201143D4F859
:10C3200098201143D4F89C201143D4F8A020114345
:10C330008161D4F8A410D4F8A8201143D4F8AC201B
:10C340001143D4F8B0201143D4F8B42041EA82015B
:10C35000D4F8B820114341F400010160012007B076
:10C36000F0BD0121284677E0002128469AE000210F
:10C37000016041608160C160016141618161C161B1
:10C38000016241628162C162016341638163C16391
:10C39000402101642021416400218164C164016560
:10C3A00041658165C1650166802141660021816624
:10C3B000C166016741678167C1674FF08061C0F85E
:10C3C00080104FF00071C0F884104FF08072C0F8F8
:10C3D00088204FF40012C0F88C200022C0F8902072
:10C3E000C0F89420C0F89820C0F89C20C0F8A02085
:10C3F000C0F8A410C0F8A8204FF40031C0F8AC1069
:10C400004FF48071C0F8B010C0F8B420C0F8B82064
:10C41000704780B5012000F06BF8DFF85802016822
:10C4200041F480110160012000F06DF8012000F05E
:10C43000ECF80120BDE80240F2E00020DFF83C12F9
:10C4400009680968DFF838220A404FF440739A42BD
:10C4500008BFC1F30D40704781B000220092DFF8A1
:10C460002422136803F01C03C00200F47840184330
:10C47000890101F4F861084340F001001060DFF821
:10C48000E4010099491C00911168C90702D500997F
:10C490008142F6D3009981420EBF0020506880B2DD
:10C4A00001B0704718B500230093DFF8D8311C683D
:10C4B0005A6004F01C02C00200F478401043890165
:10C4C00001F4F861084340F003001860DFF89401BC
:10C4D0000099491C00911968C90702D50099814249
:10C4E000F6D30099814201D1002012BD012012BD76
:10C4F000DFF858110028086814BF40F0080020F049
:10C50000080008607047DFF844110028086814BF6D
:10C5100040F0040020F00400086070474A790B796D
:10C5200043EA0222DFF860311A50CA788B781B0484
:10C5300043EA02624B7842EA032209781143DFF8AA
:10C540004C2111507047F0B5DFF82C3118600023F2
:10C55000044601E0F5605B1C934210D200EB03152A
:10C560002E464FF4801737604FF4BE6707FB031762
:10C57000B760571EBB4234BF10352546EAE7DFF8E7
:10C5800010010460F0BD0268114301607047FAE7D2
:10C59000F0B5DFF8E83018600023044601E0F560EC
:10C5A0005B1C934213D200EB03152E464FF000475D
:10C5B000376044F2F05777604FF4BE6707FB03170C
:10C5C000B760571EBB4234BF10352546E7E7DFF89A
:10C5D000C4000460F0BD426800291ABF5100490838
:10C5E00042F0004141607047DFF88000016841F08F
:10C5F000010101607047DFF87400006800F001007D
:10C600007047DFF8941008607047DFF86810002862
:10C61000086814BF40F4005020F4005008607047D0
:10C62000DFF850100028086814BF40F0020020F026
:10C63000020008607047DFF864200029116814BF09
:10C64000084321EA000010607047000000800240AB
:10C6500000D3CEFEC0E1E40040F1E9FD40787D0169
:10C66000FFFF0F00FFFF04000F8120FF009002403A
:10C67000233FDEF818900240D0D40020D8D4002008
:10C6800000830080108002404080024044800240CD
:10C69000109002400C900240149002401C90024006
:10C6A00001B481B000200090019801E00098401E84
:10C6B000009000980028F9D102B070471B49084348
:10C6C0001B490860704770B503781A460121C47889
:10C6D000ECB1174B1B6803F4E063C3F5E0631B0A7E
:10C6E0004478C3F10405AC4085780F2626FA03F39D
:10C6F0002B4023431B010F4C1355007842110E4B66
:10C7000000F01F0001FA00F043F8220070BD501144
:10C710000A4A03F01F03994042F8201070BD084AEE
:10C720001140084307490860704700000000FA05FF
:10C730000CED00E000E400E000E100E080E100E05A
:10C7400080FFFF1F08ED00E080B5DFF8B41308801C
:10C7500080B200F00FFD002002BD70B5DFF8A443E9
:10C760004FF4FA6020620020206360632060606004
:10C77000E062A062A063DFF8900300210170DFF89F
:10C780008C030180DFF888030180DFF88853D5F837
:10C790000B00A060D5F80F00E060D5F8130000F0A2
:10C7A0007BFE2061D5F8170000F076FE6061D5F8B9
:10C7B0001B0000F071FEA061D5F81F60E661D5F89E
:10C7C00023002062D5F827006062B5F82B50D248CC
:10C7D0000580206A00F056FE314600F06BFE00F046
:10C7E000D5FE41F2893180B2884228BF41F28830BB
:10C7F000CA490880088805B90546A56370BDF0B52B
:10C800000546C04C606A00F03DFE0646284600F032
:10C8100039FE0146304600F0DBFE014621636568C3
:10C820002560E06900F052FF06466660294600F088
:10C830004DFF074600F0BCFF21F00041B84AB94B5C
:10C8400000F0DEFF98BF00272846002100F0F0FF2F
:10C8500003D0314600F0ECFF00D10027A76230463C
:10C8600000F0A6FF21F00041E76A0122AE4B00F084
:10C87000EDFF23D2384600F09BFF00F02AF80AD8DB
:10C880003846314600F016FE002100F0F7FF02D2D4
:10C89000E7620020F0BD3846314601F001F8074656
:10C8A00000F086FF00F015F809D83846002100F0A6
:10C8B000E5FF2CBF9D4F4FF07A5700E00027284638
:10C8C000314600F0F7FD002101F02CF8E0D20027FE
:10C8D000DEE721F000410022934B00F091BF2DE9EB
:10C8E000F047FFF78CFF874EB76B384601F02CF806
:10C8F00081468A46B56A746820464FF03F4101F090
:10C9000011F807D200F048F900F052FF00F03CF9AE
:10C9100087495FE0874901F005F807D200F03CF94C
:10C9200000F046FF00F030F9834953E0834900F0FE
:10C93000F9FF08D200F030F900F03AFF00F024F9D6
:10C940004FF0804146E07E4900F0ECFF07D200F056
:10C9500023F900F02DFF00F017F97A493AE07A49FF
:10C9600000F0E0FF04D200F017F900F021FF33E0FF
:10C97000764900F0D7FF08D200F00EF900F018FF5A
:10C9800002460B467248734924E0734900F0CAFF1F
:10C9900008D200F001F900F00BFF02460B466F4889
:10C9A0006F4917E06F4900F0BDFF09D200F0F4F8BD
:10C9B00000F0FEFE02460B464FF066306A4909E081
:10C9C000002100F0AFFF1AD200F0E6F800F0F0FE10
:10C9D00000F090F800F0D0FF4A46534601F09EF870
:10C9E00000F0EAF800F0E4FE00F0D2F800F0DEF823
:10C9F00000F0DEFE00F0CCF801F004F90746DFF8A5
:10CA00006C812046414600F039FF23D8384600F0BB
:10CA10009BFF00F0C5F800F0CBFE02460B464FF03E
:10CA20003330534900F0A8FF00F0B2F800F0C4F82A
:10CA300000F0BEFE00F0ACF800F0B8F800F0B8FE70
:10CA400000F0A6F800F0A0F84A4901F067F801F0FC
:10CA5000D9F807462046002100F010FF23D24146B6
:10CA600000F060FF1FD2384600F06EFF00F098F82B
:10CA700000F09EFE00F03EF800F07EFF00F088F827
:10CA800000F09AF800F094FE00F082F800F08EF8C2
:10CA900000F08EFE00F07CF80022374B01F03EF8EB
:10CAA00001F0B0F80746204600F082FE21F0004178
:10CAB000324A334B00F0CAFE0BD2284600F078FE13
:10CAC00021F0004101222C4B00F0C0FE3CBF0020B1
:10CAD000F06241F289308742A8BF41F2883702DA1A
:10CAE000002F48BF0027B7633846FFF72DFE002010
:10CAF000BDE8F08702460B464FF0333021497047BE
:10CB0000EED400200000002078D4002080D4002043
:10CB100084D40020B8D3002086D4002082D4002002
:10CB20009B9999999999B93F0000D03F000080BE28
:10CB300000003440999999BE00002E40CCCC4CBEE8
:10CB4000999919BE0000F83FCCCCCCBDCCCC4CBDE3
:10CB5000CDCCCCCCCCCCEC3F8FC2F5BC9A9999997A
:10CB60009999E93F0AD723BC6666E63FCDCC4C3D98
:10CB70003333D33F0000E03F0000F03FFDA9F1D286
:10CB80004D62503F3333E33F02460B46002070476F
:10CB90003A46534600F0C2BF3069214600F08ABCD5
:10CBA00007468A463069214600F084BC07468A461B
:10CBB000B069294600F07EBC07468A467169F06A72
:10CBC00000F078BC4181974901600021C1808180DB
:10CBD000704730B5C288521C438992FBF3F403FBC3
:10CBE00014248588AC4204D0C480C488006820F82E
:10CBF000141030BD8188C288914201D10020704755
:10CC0000491C428991FBF2F302FB13118180818858
:10CC1000006830F81100704764218348D2E701466C
:10CC20008148D6E730B50278AA2A18D14278AA2AD4
:10CC300015D18279C37942EA03228A420FD1427A1E
:10CC40000123A1F1090503E01C18647A62405B1C12
:10CC50009BB2AB42F8DB007AD2B2824201D0002014
:10CC600030BD012030BD80B50146B1F8090041F664
:10CC7000017290420DD15521202000F0EFFF6B484A
:10CC8000016801F4E0616A4A11430160BFF34F8F0C
:10CC9000FEE76848B1F809204FF49153D21A02D048
:10CCA000521E12D001BD644A002313702D22FDF7DD
:10CCB00025F949F22020FFF7B2FFFFF74EFD5F494B
:10CCC00008805F480021017001BD30301322FDF75C
:10CCD00015F900F0F6FF49F22120BDE802409EE779
:10CCE00038B504460D462988FFF79CFF18B1204649
:10CCF000FFF7B9FF0020288031BD10B5AA230370CB
:10CD00004370012383700023C370037148E010B5A2
:10CD10004C4BB3F80F4004B1641E4272120A827287
:10CD2000D3F80B20C272D3F80B20120A0273D3F887
:10CD30000B20120C4273D3F80B20120E8273C473B3
:10CD40002404220E02740022427482743E4A138824
:10CD5000C3741288120A0275427A01231C18647A7D
:10CD600062405B1C0C2BF9D3AA2303704370012390
:10CD700083700023C37003714371152383710023F3
:10CD8000C37102721520088010BD10B5AA2303706C
:10CD90004370022383700023C370012303710023B7
:10CDA00043710B2383710023C371130A83EA0204C6
:10CDB0000472427283720B20088010BD70B54FF46C
:10CDC0008054224D605D00282BD11748FFF712FFD9
:10CDD000024605F6000041F20401491941F201261C
:10CDE000931B09D048F21F069B1B012B08D8FFF7A5
:10CDF00084FF0120605570BD3246FFF788FFF8E7D9
:10CE000041F20602525D012A0BD1114E3278002AFE
:10CE100007D141F25012FFF7B8FF012060550520FD
:10CE2000307070BD28D20020A0D400200CED00E0AE
:10CE30000400FA05B8D300205E0000206400002042
:10CE40005C00002060D40020EED4002068BB0020ED
:10CE50005D00002010B588B0002003908DF8100010
:10CE600002208DF81100FCF75DFFFCF70DFF204854
:10CE7000FBF734FE07906FF0FF00FBF72FFE0690E4
:10CE80001C48FBF72BFE059003A800F0CBFF1A4CC3
:10CE90001A4802901A4801900020009005AB06AA9B
:10CEA00007A92046FDF7C0F92046FDF723FA2046E2
:10CEB000FDF72AFA08B010BD0F4801F001B811B50E
:10CEC00081B0104C01982168401A192803D30198A9
:10CED0002060FCF7F1FB01986168401A41F288314B
:10CEE000884203D301986060FDF705FF13BD000081
:10CEF000640AA8C0010AA8C030D40020C1B200084A
:10CF0000E7DE0008C8D4002038B541F218016E4AA7
:10CF100001FB002505F58054FDF7EEFDE0600020E3
:10CF2000A071E06840B10120A0750020E07505F512
:10CF3000805000210170A18031BD70B582B00446DF
:10CF400000F0B0F841F218005F4900FB041441F210
:10CF50000C052E1930797179090441EA0060B17924
:10CF600040EA0120F1790843FBF7B8FD009042F256
:10CF7000AE6256492859FDF76BFD328900A9285940
:10CF8000FDF791FD50B9002251492859FDF7AEFD3A
:10CF900041F20600012101550020F07273BDF8B581
:10CFA000494B41F20204E5188E8A6F8ABE422ED1A7
:10CFB000002641F2100706EB030C17F80C70D1F8AD
:10CFC00004C04FEAC60E2CFA0EFC5FFA8CFC6745D3
:10CFD00002D1761C042EECDB2979012917D1042E0D
:10CFE00015D1118940F60106B1420BD251680020DB
:10CFF00005E0E65A8619475CF754401CC0B2168912
:10D00000B042F6DBE15A4018E05202202871104687
:10D01000BDE8F240FBF753BE70B541F218012A4A51
:10D0200001FB002441F204050322295B0020FBF7E9
:10D0300062FD06000CD02A5B04F50061FBF7FBFEE5
:10D04000314628198068FDF790FC3046FBF737FE23
:10D0500070BD38B51C4C04F58055A879022807D15D
:10D0600041F2020001192046FFF73AFE0120A871A3
:10D07000A87D10B9BDE8324046E7A87910B9BDE8EF
:10D0800032405AE701280CD14FF48055285D012821
:10D0900007D10020FFF7C0FF002028550D480521CB
:10D0A000017031BD70B941F210000749421842F2D7
:10D0B000AE639380C0234354A82050700A20907020
:10D0C0000D20D0707047000068BB0020BC8E0008A7
:10D0D0009FCF00085D00002038B5012100F010F856
:10D0E0005E4C00F008F85E4D00212846FEF760FE19
:10D0F0005948818815E0002280212046FEF7D4BDE2
:10D100005848FEF7FCBC38B51021FFF7F9FF564C24
:10D11000FFF7F1FF554D00212846FEF749FE4E4826
:10D1200081892846FEF74EFE0122FFF7E5FF012127
:10D130002846BDE83440FEF73BBEF0B5140AD2B233
:10D140000FF240250FF23C1605E010F8017B674016
:10D15000BC5D54407A5D8842F7D3002B0CBF42EA95
:10D16000042044EA022080B2F0BD00234FF6FF7293
:10D170000918E2E770B58EB0010A3D4A12783D4CBD
:10D180003D4D00AE52B98DF8002006227270FA2291
:10D1900000F04FF800F055F8082041E0012A0AD1CC
:10D1A00000228DF8002006227270202200F041F843
:10D1B00000F047F8F0E7022A39D100F0CFFB002257
:10D1C0002E4B00F041FF00222D4B00F0D5FB00F06C
:10D1D00019FD80B201218DF800101021717000211D
:10D1E000B1706321F170002131710221717104214C
:10D1F000B171F1717F213172010A8DF809108DF83A
:10D200000A000B2100A8FFF7B0FF0112F172307382
:10D210000020815D41550155401C0D28F9DB0D2092
:10D220000D4A90809081FFF76EFFFFF755FF0EB01B
:10D2300070BDB2700122F27031717071062100A8C8
:10D2400093E70112B171F0710020815D41550155E4
:10D25000401C0828F9DB70478CD40020004C0040AB
:10D260005804024000140140004400408000024085
:10D27000F4D40020F0D2002054D300200088B34022
:10D280000000D04000C1814001C0804101C0804108
:10D2900000C1814001C0804100C1814000C1814086
:10D2A00001C0804101C0804100C1814000C1814076
:10D2B00001C0804100C1814001C0804101C0804166
:10D2C00000C1814001C0804100C1814000C1814056
:10D2D00001C0804100C1814001C0804101C0804146
:10D2E00000C1814000C1814001C0804101C0804136
:10D2F00000C1814001C0804100C1814000C1814026
:10D3000001C0804101C0804100C1814000C1814015
:10D3100001C0804100C1814001C0804101C0804105
:10D3200000C1814000C1814001C0804101C08041F5
:10D3300000C1814001C0804100C1814000C18140E5
:10D3400001C0804100C1814001C0804101C08041D5
:10D3500000C1814001C0804100C1814000C18140C5
:10D3600001C0804101C0804100C1814000C18140B5
:10D3700001C0804100C1814001C0804101C08041A5
:10D3800000C1814000C0C101C30302C2C60607C775
:10D3900005C5C404CC0C0DCD0FCFCE0E0ACACB0BE5
:10D3A000C90908C8D81819D91BDBDA1A1EDEDF1F15
:10D3B000DD1D1CDC14D4D515D71716D6D21213D305
:10D3C00011D1D010F03031F133F3F23236F6F737B5
:10D3D000F53534F43CFCFD3DFF3F3EFEFA3A3BFBA5
:10D3E00039F9F83828E8E929EB2B2AEAEE2E2FEF55
:10D3F0002DEDEC2CE42425E527E7E62622E2E323C5
:10D40000E12120E0A06061A163A3A26266A6A767F4
:10D41000A56564A46CACAD6DAF6F6EAEAA6A6BAB64
:10D4200069A9A86878B8B979BB7B7ABABE7E7FBF94
:10D430007DBDBC7CB47475B577B7B67672B2B37384
:10D44000B17170B050909151935352929656579734
:10D45000559594549C5C5D9D5F9F9E5E5A9A9B5B24
:10D4600099595898884849894B8B8A4A4E8E8F4FD4
:10D470008D4D4C8C44848545874746868242438344
:10D4800041818040002840F10880F446404200F08D
:10D4900004F850F00040604700280AD0B0FA80F14C
:10D4A0008840D1F19D01C905020672F1004241EBAD
:10D4B00010207047FF2212EAD05C1DBF12EAD15340
:10D4C000944593422BE09C44D30780EA01021A4022
:10D4D00043EA002043EA0121A1FB0030410038BFAC
:10D4E00040007CF17F010BDBFE294ADA5B0842EA4F
:10D4F000C15153EA006373F1004C51EB10207047A7
:10D50000D1F1080CDCF120012FDB5B0810FA01F1EE
:10D510000B4373F1004120FA0CF0504170479445E1
:10D520001CBF02EAD153934280EA010202F000429A
:10D530001DD0400019D0490017D05BB9634514D005
:10D540000902B1FA81F39940BCEB030CC00140F031
:10D550000040C1E70002B0FA80FC10FA0CF0B3EB17
:10D560000C0CC90141F00041B6E7100070474000C3
:10D570000AD0490008D010F1807F94BF11F1807F5C
:10D5800002E042F0FF407047D04370474100090E6F
:10D590007F3915D4D1F11F0114D4400007D2C00146
:10D5A00040F00040C84048BF6FF000407047C001E5
:10D5B00040F00040C8404CBF4FF000404042704730
:10D5C0000020704700424FF0004058BFC0437047F2
:10D5D00010B5FF2313EAD0541DBF13EAD1529C4269
:10D5E0009A4239E0A41ADA0780EA0103134042EABA
:10D5F000012142EA0020421A3CBF641E01EB4202B4
:10D60000090AB2FBF1FE01FB1E221202B2FBF1F08D
:10D6100001FB10226EF30F201202B2FBF1FE4EEA64
:10D6200000207F3406DDFE2C24DA53EA500050EB54
:10D63000C45010BDD4F1020401FB1E2240F08071E1
:10D64000192C1DDC21FA04F0C4F12004A14011437F
:10D6500071F10042584110BD9C421ABF03EAD152F9
:10D660009A420FE080EA010E0EF00043400004D021
:10D67000490016D143F0FF4010BD490008BFD34315
:10D68000180010BD9C4205D1D21AF7D001F000411C
:10D69000484010BD4A0212BF0846484000F0004012
:10D6A00010BD4AB90902B1FA81F2914044B1A418FF
:10D6B000C00140F000409EE7C90141F000415242E4
:10D6C0000002B0FA80F4A040141B94E790EA010F26
:10D6D00044BF81F0004100F0EAB8431A4FF0004225
:10D6E0003EBF5340C01AC918D3095FEAD05C13EBA0
:10D6F000400F34BFB3EB410F40E07CEBD1530CD370
:10D7000042EA012122D8D1EB402009D3400A28BFA8
:10D710005FEA500140EBCC507047401A15D04002F0
:10D72000B0FA80F2521C9040400A4FEA3C23B3EB1F
:10D73000026384BF00EB730007E040F400001A1698
:10D74000DB07C2F10102D04018437047182BFCDC04
:10D7500031FA03F202FA03F3591A38BF42F0010218
:10D76000D2EB40203CBF4000ACF1010C5FEACC5C46
:10D77000C20572F100414CEB5020704713EB400F93
:10D780000FD24B0009D0ACEBD153022B03DB490283
:10D79000172BDDDD70479143401A4300D5D100209F
:10D7A000704713EB410FD0D36FF0000070470000BB
:10D7B0005FF0FF0C1CEAD05114BF614506E0C110B8
:10D7C000400721F0E04101F16051704779B900F064
:10D7D000004100020AD0B0FA80FC00FA0CF001F11E
:10D7E0006051A1EB0C5101EBD02140057047410283
:10D7F0000CBF40F4E0016FF0000100207047000012
:10D800004FF4001C1CEB410F94BF1CEB430F09E0CD
:10D8100041EA030C50EA4C0C52EA0C0C03D28B4246
:10D8200008BF8242704714BF99429042704700007F
:10D8300040EA010C5FEA4C0C07D0884205D14FEA60
:10D84000400C1CF1807F98BF804270474FF4001C51
:10D850001CEB410F94BF1CEB430F09E041EA030CA2
:10D8600050EA4C0C52EA0C0C03D2994208BF904289
:10D87000704714BF8B428242704700004FF0807C9B
:10D880001CEB400F94BF1CEB410F05E040EA010C7C
:10D890005FEA4C0C01D28142704718BF8842704742
:10D8A00090EA010F44BF81F00041FFF716BF421A12
:10D8B0003CBF801A89184FF0004CC0F3C752FF2AB2
:10D8C00024D0C1F3C75313B3D21AD2F1190327DD01
:10D8D0004CEA01214CFA03F321EA0303D140C20DC3
:10D8E0004CEA0020401834BF20EA0C004CEA5000FB
:10D8F000D20553EA006373EB0C0C52EB102042008C
:10D9000012F1807F38BF7047C00DC00570474902D3
:10D9100012BF9A4200EB5120F8E7D2F11703D9D594
:10D92000704700004FF0807C1CEB400F94BF1CEB55
:10D93000410F05E040EA010C5FEA4C0C01D288423D
:10D94000704718BF81427047010040F10880F446DB
:10D95000404200F004F851F000416047010009D056
:10D96000B0FA80F18840C91CC1F58461090501EB5A
:10D97000D021400570470000B0B581EA030C0CF0DF
:10D98000004C40F2FF7515EA11541DBF15EA1357FC
